:020000040800F2
:1000000000500020B1250008B5230008BD230008DA
:10001000C5230008CD230008D523000800000000F8
:10002000000000000000000000000000DD230008C8
:10003000E923000800000000F5230008012400085F
:10004000F9250008F9250008F9250008F925000818
:10005000F9250008F9250008F9250008F925000808
:10006000F9250008F9250008F9250008F9250008F8
:10007000F9250008F9250008F9250008F9250008E8
:10008000F9250008F9250008F9250008F9250008D8
:10009000F9250008F9250008F9250008F9250008C8
:1000A000F9250008F9250008F9250008F9250008B8
:1000B000F92500080D240008F9250008F925000895
:1000C000F9250008F9250008F9250008F925000898
:1000D000F9250008F9250008F9250008F925000888
:1000E000F9250008F9250008F9250008000000009E
:1000F0000000000000000000000000000000000000
:0C01000000000000000000005FF808F1A3
:1001100010B5054C237833B9044B13B10448AFF341
:1001200000800123237010BDE801002000000000C2
:100130003C92000808B5034B1BB103490348AFF3D9
:10014000008008BD00000000EC0100203C92000887
:10015000034613F8012B002AFBD1181A0138704707
:1001600081F0004102E000BF83F0004330B54FEA68
:1001700041044FEA430594EA050F08BF90EA020FD5
:100180001FBF54EA000C55EA020C7FEA645C7FEA68
:10019000655C00F0E2804FEA5454D4EB5555B8BF8B
:1001A0006D420CDD2C4480EA020281EA030382EAFC
:1001B000000083EA010180EA020281EA0303362D8E
:1001C00088BF30BD11F0004F4FEA01314FF4801C61
:1001D0004CEA113102D0404261EB410113F0004F73
:1001E0004FEA03334CEA133302D0524263EB43032A
:1001F00094EA050F00F0A780A4F10104D5F1200EC8
:100200000DDB02FA0EFC22FA05F2801841F1000122
:1002100003FA0EF2801843FA05F359410EE0A5F1F6
:1002200020050EF1200E012A03FA0EFC28BF4CF027
:10023000020C43FA05F3C01851EBE37101F00045DD
:1002400007D54FF0000EDCF1000C7EEB00006EEBEA
:100250000101B1F5801F1BD3B1F5001F0CD3490874
:100260005FEA30004FEA3C0C04F101044FEA4452CB
:1002700012F5800F80F09A80BCF1004F08BF5FEA52
:10028000500C50F1000041EB045141EA050130BD32
:100290005FEA4C0C404141EB0101013C28BFB1F544
:1002A000801FE9D291F0000F04BF01460020B1FA8F
:1002B00081F308BF2033A3F10B03B3F120020CDA62
:1002C0000C3208DD02F1140CC2F10C0201FA0CF040
:1002D00021FA02F10CE002F11402D8BFC2F1200CA5
:1002E00001FA02F120FA0CFCDCBF41EA0C0190405B
:1002F000E41AA2BF01EB0451294330BD6FEA0404A4
:100300001F3C1CDA0C340EDC04F11404C4F120028E
:1003100020FA04F001FA02F340EA030021FA04F3A0
:1003200045EA030130BDC4F10C04C4F1200220FAF7
:1003300002F001FA04F340EA0300294630BD21FA35
:1003400004F0294630BD94F0000F83F4801306BFFB
:1003500081F480110134013D4EE77FEA645C18BFEF
:100360007FEA655C29D094EA050F08BF90EA020F86
:1003700005D054EA000C04BF1946104630BD91EA7E
:10038000030F1EBF0021002030BD5FEA545C05D181
:100390004000494128BF41F0004130BD14F58004C0
:1003A0003CBF01F5801130BD01F0004545F0FE4134
:1003B00041F470014FF0000030BD7FEA645C1ABF69
:1003C000194610467FEA655C1CBF0B46024650EAA0
:1003D000013406BF52EA033591EA030F41F40021CC
:1003E00030BD00BF90F0000F04BF0021704730B552
:1003F0004FF4806404F132044FF000054FF0000127
:1004000050E700BF90F0000F04BF0021704730B5E7
:100410004FF4806404F1320410F0004548BF4042BC
:100420004FF000013EE700BF42004FEAE2014FEA11
:1004300031014FEA02701FBF12F07F4393F07F4FEC
:1004400081F06051704732F07F4208BF704793F0EF
:100450007F4F04BF41F40021704730B54FF4607402
:1004600001F0004521F000411CE700BF50EA010205
:1004700008BF704730B54FF000050AE050EA0102AE
:1004800008BF704730B511F0004502D5404261EB1E
:1004900041014FF4806404F132045FEA915C3FF45F
:1004A000D8AE4FF003025FEADC0C18BF03325FEAFC
:1004B000DC0C18BF033202EBDC02C2F1200300FAAD
:1004C00003FC20FA02F001FA03FE40EA0E0021FAD2
:1004D00002F11444BDE600BF70B54FF0FF0C4CF4C0
:1004E000E06C1CEA11541DBF1CEA135594EA0C0F72
:1004F00095EA0C0F00F0DEF82C4481EA030621EAAD
:100500004C5123EA4C5350EA013518BF52EA0335E7
:1005100041F4801143F4801338D0A0FB02CE4FF099
:100520000005E1FB02E506F00042E0FB03E54FF0C9
:100530000006E1FB03569CF0000F18BF4EF0010EC1
:10054000A4F1FF04B6F5007F64F5407404D25FEABD
:100550004E0E6D4146EB060642EAC62141EA555170
:100560004FEAC52040EA5E504FEACE2EB4F1FD0CB2
:1005700088BFBCF5E06F1ED8BEF1004F08BF5FEA30
:10058000500E50F1000041EB045170BD06F00046E2
:1005900046EA010140EA020081EA0301B4EB5C048F
:1005A000C2BFD4EB0C0541EA045170BD41F4801187
:1005B0004FF0000E013C00F3AB8014F1360FDEBFAC
:1005C000002001F0004170BDC4F10004203C35DA88
:1005D0000C341BDC04F11404C4F1200500FA05F30B
:1005E00020FA04F001FA05F240EA020001F00042AC
:1005F00021F0004110EBD37021FA04F642EB060122
:100600005EEA430E08BF20EAD37070BDC4F10C044B
:10061000C4F1200500FA04F320FA05F001FA04F20F
:1006200040EA020001F0004110EBD37041F10001FB
:100630005EEA430E08BF20EAD37070BDC4F1200506
:1006400000FA05F24EEA020E20FA04F301FA05F26E
:1006500043EA020321FA04F001F0004121FA04F216
:1006600020EA020000EBD3705EEA430E08BF20EAE6
:10067000D37070BD94F0000F0FD101F00046400020
:1006800041EB010111F4801F08BF013CF7D041EAA2
:10069000060195F0000F18BF704703F000465200A6
:1006A00043EB030313F4801F08BF013DF7D043EA77
:1006B0000603704794EA0C0F0CEA135518BF95EA2D
:1006C0000C0F0CD050EA410618BF52EA4306D1D1B4
:1006D00081EA030101F000414FF0000070BD50EAD3
:1006E000410606BF1046194652EA430619D094EA5D
:1006F0000C0F02D150EA013613D195EA0C0F05D147
:1007000052EA03361CBF104619460AD181EA03019A
:1007100001F0004141F0FE4141F470014FF0000052
:1007200070BD41F0FE4141F4780170BD70B54FF0ED
:10073000FF0C4CF4E06C1CEA11541DBF1CEA13556D
:1007400094EA0C0F95EA0C0F00F0A7F8A4EB05044F
:1007500081EA030E52EA03354FEA013100F0888046
:100760004FEA03334FF0805545EA131343EA12630F
:100770004FEA022245EA111545EA10654FEA0026C4
:100780000EF000419D4208BF964244F1FD0404F57D
:10079000407402D25B084FEA3202B61A65EB0305D9
:1007A0005B084FEA32024FF480104FF4002CB6EB96
:1007B000020E75EB030E22BFB61A754640EA0C0016
:1007C0005B084FEA3202B6EB020E75EB030E22BF56
:1007D000B61A754640EA5C005B084FEA3202B6EB97
:1007E000020E75EB030E22BFB61A754640EA9C0056
:1007F0005B084FEA3202B6EB020E75EB030E22BF26
:10080000B61A754640EADC0055EA060E18D04FEAE3
:10081000051545EA16754FEA06164FEAC30343EA83
:1008200052734FEAC2025FEA1C1CC0D111F4801F50
:100830000BD141EA00014FF000004FF0004CB6E749
:1008400011F4801F04BF01430020B4F1FD0C88BFE8
:10085000BCF5E06F3FF6AFAEB5EB030C04BFB6EBF3
:10086000020C5FEA500C50F1000041EB045170BDE6
:100870000EF0004E4EEA113114EB5C04C2BFD4EB13
:100880000C0541EA045170BD41F480114FF0000E97
:10089000013C90E645EA060E8DE60CEA135594EA13
:1008A0000C0F08BF95EA0C0F3FF43BAF94EA0C0F16
:1008B0000AD150EA01347FF434AF95EA0C0F7FF48B
:1008C00025AF104619462CE795EA0C0F06D152EADF
:1008D00003353FF4FDAE1046194622E750EA4106C3
:1008E00018BF52EA43067FF4C5AE50EA41047FF4D4
:1008F0000DAF52EA43057FF4EBAE12E74FF0FF3C39
:1009000006E000BF4FF0010C02E000BF4FF0010C09
:100910004DF804CD4FEA410C7FEA6C5C4FEA430C82
:1009200018BF7FEA6C5C1BD001B050EA410C0CBFD1
:1009300052EA430C91EA030F02BF90EA020F002033
:10094000704710F1000F91EA030F58BF994208BF9A
:1009500090422CBFD8176FEAE37040F00100704757
:100960004FEA410C7FEA6C5C02D150EA013C07D1AE
:100970004FEA430C7FEA6C5CD6D152EA033CD3D0F9
:100980005DF8040B704700BF8446104662468C46F3
:100990001946634600E000BF01B5FFF7B7FF002826
:1009A00048BF10F1000F01BD4DF808EDFFF7F4FF4F
:1009B0000CBF012000205DF808FB00BF4DF808EDDA
:1009C000FFF7EAFF34BF012000205DF808FB00BFFD
:1009D0004DF808EDFFF7E0FF94BF012000205DF81F
:1009E00008FB00BF4DF808EDFFF7CEFF94BF0120D4
:1009F00000205DF808FB00BF4DF808EDFFF7C4FFCD
:100A000034BF012000205DF808FB00BF4FEA410C15
:100A10007FEA6C5C02D150EA013C0AD14FEA430CF8
:100A20007FEA6C5C02D152EA033C02D14FF0000035
:100A300070474FF0010070474FEA410212F5001273
:100A400015D211D56FF47873B3EB625212D94FEA15
:100A5000C12343F0004343EA505311F0004F23FAFF
:100A600002F018BF404270474FF00000704750EA54
:100A7000013005D111F0004008BF6FF00040704711
:100A80004FF00000704700BF4A0011D212F500126B
:100A900011D20DD56FF47873B3EB62520ED44FEAD6
:100AA000C12343F0004343EA505323FA02F0704756
:100AB0004FF00000704750EA013002D14FF0FF3094
:100AC00070474FF00000704780F0004002E000BF28
:100AD00081F0004142001FBF5FEA410392EA030F29
:100AE0007FEA226C7FEA236C6AD04FEA1262D2EB73
:100AF0001363C1BFD218414048404140B8BF5B4278
:100B0000192B88BF704710F0004F40F4000020F010
:100B10007F4018BF404211F0004F41F4000121F026
:100B20007F4118BF494292EA030F3FD0A2F1010270
:100B300041FA03FC10EB0C00C3F1200301FA03F1AE
:100B400000F0004302D5494260EB4000B0F5000FD1
:100B500013D3B0F1807F06D340084FEA310102F190
:100B60000102FE2A51D2B1F1004F40EBC25008BF42
:100B700020F0010040EA03007047490040EB00000C
:100B8000013A28BFB0F5000FEDD2B0FA80FCACF10D
:100B9000080CB2EB0C0200FA0CF0AABF00EBC2503A
:100BA00052421843BCBFD0401843704792F0000F28
:100BB00081F4000106BF80F400000132013BB5E77B
:100BC0004FEA41037FEA226C18BF7FEA236C21D0F1
:100BD00092EA030F04D092F0000F08BF0846704756
:100BE00090EA010F1CBF0020704712F07F4F04D124
:100BF000400028BF40F00040704712F100723CBF37
:100C000000F50000704700F0004343F0FE4040F460
:100C1000000070477FEA226216BF08467FEA23631E
:100C20000146420206BF5FEA412390EA010F40F409
:100C3000800070474FF0000304E000BF10F0004355
:100C400048BF40425FEA000C08BF704743F096433C
:100C500001464FF000001CE050EA010208BF704757
:100C60004FF000030AE000BF50EA010208BF7047DE
:100C700011F0004302D5404261EB41015FEA010CF3
:100C800002BF84460146002043F0B64308BFA3F1EB
:100C90008053A3F50003BCFA8CF2083AA3EBC253CD
:100CA00010DB01FA02FC634400FA02FCC2F12002EC
:100CB000BCF1004F20FA02F243EB020008BF20F023
:100CC0000100704702F1200201FA02FCC2F1200289
:100CD00050EA4C0021FA02F243EB020008BF20EA7E
:100CE000DC7070474FF0FF0C1CEAD0521EBF1CEAAC
:100CF000D15392EA0C0F93EA0C0F6FD01A4480EA9A
:100D0000010C400218BF5FEA41211ED04FF0006382
:100D100043EA501043EA5111A0FB01310CF00040AE
:100D2000B1F5000F3EBF490041EAD3715B0040EAD4
:100D3000010062F17F02FD2A1DD8B3F1004F40EBA4
:100D4000C25008BF20F00100704790F0000F0CF077
:100D5000004C08BF49024CEA502040EA51207F3A3B
:100D6000C2BFD2F1FF0340EAC250704740F4000016
:100D70004FF00003013A5DDC12F1190FDCBF00F007
:100D800000407047C2F10002410021FA02F1C2F1B5
:100D9000200200FA02FC5FEA310040F1000053EA51
:100DA0004C0308BF20EADC70704792F0000F00F09F
:100DB000004C02BF400010F4000F013AF9D040EAA5
:100DC0000C0093F0000F01F0004C02BF490011F439
:100DD000000F013BF9D041EA0C018FE70CEAD15337
:100DE00092EA0C0F18BF93EA0C0F0AD030F0004CB7
:100DF00018BF31F0004CD8D180EA010000F000406B
:100E0000704790F0000F17BF90F0004F084691F028
:100E1000000F91F0004F14D092EA0C0F01D1420262
:100E20000FD193EA0C0F03D14B0218BF084608D12B
:100E300080EA010000F0004040F0FE4040F4000075
:100E4000704740F0FE4040F4400070474FF0FF0C08
:100E50001CEAD0521EBF1CEAD15392EA0C0F93EA4F
:100E60000C0F69D0A2EB030280EA010C49024FEAA1
:100E7000402037D04FF0805343EA111143EA10135A
:100E80000CF000408B4238BF5B0042F17D024FF412
:100E9000000C8B4224BF5B1A40EA0C00B3EB510FED
:100EA00024BFA3EB510340EA5C00B3EB910F24BFD6
:100EB000A3EB910340EA9C00B3EBD10F24BFA3EB5B
:100EC000D10340EADC001B0118BF5FEA1C1CE0D123
:100ED000FD2A3FF650AF8B4240EBC25008BF20F0D6
:100EE000010070470CF0004C4CEA50207F32C2BF2A
:100EF000D2F1FF0340EAC250704740F400004FF0C7
:100F00000003013A37E792F0000F00F0004C02BFF7
:100F1000400010F4000F013AF9D040EA0C0093F0C1
:100F2000000F01F0004C02BF490011F4000F013B1B
:100F3000F9D041EA0C0195E70CEAD15392EA0C0F83
:100F400008D142027FF47DAF93EA0C0F7FF470AFBB
:100F5000084676E793EA0C0F04D14B023FF44CAFFE
:100F600008466EE730F0004C18BF31F0004CCAD193
:100F700030F000427FF45CAF31F000437FF43CAFCF
:100F80005FE700BF4FF0FF3C06E000BF4FF0010CF1
:100F900002E000BF4FF0010C4DF804CD4FEA4002D3
:100FA0004FEA41037FEA226C18BF7FEA236C11D01D
:100FB00001B052EA530C18BF90EA010F58BFB2EBD0
:100FC000030088BFC81738BF6FEAE17018BF40F050
:100FD000010070477FEA226C02D15FEA402C05D104
:100FE0007FEA236CE4D15FEA412CE1D05DF8040B89
:100FF000704700BF844608466146FFE70FB5FFF71C
:10100000C9FF002848BF10F1000F0FBD4DF808EDD3
:10101000FFF7F4FF0CBF012000205DF808FB00BFC4
:101020004DF808EDFFF7EAFF34BF012000205DF81E
:1010300008FB00BF4DF808EDFFF7E0FF94BF01206B
:1010400000205DF808FB00BF4DF808EDFFF7D2FF68
:1010500094BF012000205DF808FB00BF4DF808EDAB
:10106000FFF7C8FF34BF012000205DF808FB00BF78
:1010700080B586B002AF0346FB71FB7923F00F0306
:10108000FB73FB791B01BB73FB7B43F00C03DBB2EF
:101090003B72FB7B43F00803DBB27B72BB7B43F00C
:1010A0000C03DBB2BB72BB7B43F00803DBB2FB7209
:1010B00007F108026423009304234E21034802F041
:1010C00017FC00BF1037BD4680BD00BF34020020B2
:1010D00080B586B002AF0346FB71FB7923F00F03A6
:1010E000FB73FB791B01BB73FB7B43F00D03DBB28E
:1010F0003B72FB7B43F00903DBB27B72BB7B43F0AB
:101100000D03DBB2BB72BB7B43F00903DBB2FB72A6
:1011100007F108026423009304234E21034802F0E0
:10112000E7FB00BF1037BD4680BD00BF3402002082
:1011300080B500AF3320FFF79BFF052001F0C0FA18
:101140003220FFF795FF052001F0BAFA2820FFF7BB
:101150008FFF052001F0B4FA0120FFF789FF052079
:1011600001F0AEFA0620FFF783FF052001F0A8FA90
:101170000C20FFF77DFF052001F0A2FA0220FFF707
:1011800077FF052001F09CFA8020FFF771FF00BF78
:1011900080BD80B582B000AF786006E07B685A1CE5
:1011A0007A601B781846FFF793FF7B681B78002B4B
:1011B000F4D100BF00BF0837BD4680BD80B500AF89
:1011C0000120FFF755FF022001F07AFA00BF80BD31
:1011D00080B584B000AF786039600F4BFB607B68EE
:1011E000002B14DD7B68042B11DC7B68013B103382
:1011F0003B4413F8042C3B68DBB21344DBB25BB214
:1012000063F07F035BB2DBB21846FFF731FF00BF2C
:101210001037BD4680BD00BF0040145480B588B073
:1012200004AF78600B46FB7013463B803B881B0A7B
:101230009BB2DBB23B733B88DBB27B737B68186885
:101240007B681B791946FB789AB24FF0FF33029303
:101250000223019307F10C030093012302F046FCE3
:10126000034618461037BD4680BD80B588B004AF30
:1012700078600B46FB707B6818687B681B791946A1
:10128000FB789AB24FF0FF3302930223019307F1E8
:101290000C030093012302F023FD3B7B1B021AB2D7
:1012A0007B7B1BB213431BB29BB218461037BD4663
:1012B00080BD000080B584B000AFF860B96013460F
:1012C000FB71FB68BA681A60FB795B00DAB2FB68F5
:1012D0001A71FB680D4A9A60FB684FF08042DA6031
:1012E0004FF480520521F868FFF798FF0346002B62
:1012F00001D0012306E043F69F120021F868FFF7B2
:101300008DFF034618461037BD4680BDCDCCCC3D81
:1013100080B584B000AF78604FF4805205217868C2
:10132000FFF77CFF04217868FFF79FFF0346FB81EE
:10133000B7F90E301846FFF781FC02467B689B68C0
:1013400019461046FFF7CEFC034618461037BD4637
:1013500080BD000080B582B000AF78607868FFF78C
:10136000D7FF034604491846FFF770FD03461846A9
:101370000837BD4680BD00BF00007A440000000071
:1013800080B586B000AFF860B9607A607868FFF722
:101390004BF84FF00002224BFFF7C8F902460B460C
:1013A000104619461CA3D3E90023FFF795F802461F
:1013B0000B4610461946FFF767FB03467B617B69C6
:1013C0005A2B01D85B237B617B6940F26E629342AA
:1013D00002D940F26E637B61BB68002B04D1FB68CD
:1013E0001B687A695A6313E0BB68042B04D1FB685D
:1013F0001A687B6993630BE0BB68082B04D1FB6818
:101400001A687B69D36303E0FB681A687B6913641D
:1014100000BF1837BD4680BD0000000000909C4012
:101420000000594080B586B000AF786007F108032E
:1014300000221A605A609A607B68BB600123FB60DF
:1014400006233B6107F1080319460B4801F020FC15
:10145000094801F031FA0A21074801F007FB064864
:1014600001F00AFC7861044801F0D4FA7B6918465F
:101470001837BD4680BD00BF0402002090B583B080
:1014800000AF786039600A497868FFF72BFC0346A3
:101490001C4608493868FFF725FC034619462046D4
:1014A000FFF718FB034618460C37BD4690BD00BF3A
:1014B000CDCCCC3D6666663F90B583B000AF1120C1
:1014C000FFF7B0FF78607B68002B19D00E4B0F49F7
:1014D0001846FFF707FC03461C467868FFF7AAFB8F
:1014E000034619462046FFF7B1FC03463B60084B14
:1014F0001B6819463868FFF7C1FF0346044A1360AA
:1015000000BF0C37BD4690BD9A99993F00F07F45CA
:101510000000002080B584B000AF7C4B1B687C4A83
:10152000126811461846FFF7DDFB0346BB60794B96
:101530001B681946B868FFF7CBFA03467B60734B0C
:101540001B68754A126811461846FFF7C1FA034630
:101550003B600023FB606E4B1B6870491846FFF729
:101560005FFD0346002B02D00123FB6038E06C4B8B
:101570001B6819467868FFF771FD0346002B0AD1F6
:10158000674B1B6883F0004319467868FFF748FDF6
:101590000346002B24D04FF000017868FFF75EFD72
:1015A0000346002B0ED04FF000013868FFF756FDC0
:1015B0000346002B03D04FF0FF33FB6010E0012304
:1015C000FB600DE04FF000013868FFF747FD034670
:1015D000002B02D00123FB6002E04FF0FF33FB60E1
:1015E000FB68012B22D14F4B1B684F491846FFF770
:1015F00017FD0346002B0CD04A4B1B684B4A126860
:1016000011461846FFF766FA03461A46454B1A601C
:1016100032E0474B1B68454A126811461846FFF7EF
:1016200057FA03461A46424B1A6025E0FB68B3F1AD
:10163000FF3F21D13E4B1B683B491846FFF7F0FCAA
:101640000346002B0CD03A4B1B68384A12681146EF
:101650001846FFF73FFA03461A46354B1A600BE06F
:10166000304B1B68314A126811461846FFF730FAB2
:1016700003461A462B4B1A602A4B1B682D49184605
:10168000FFF7CEFC0346002B02D0264B294A1A60F6
:10169000244B1B6824491846FFF7E0FC0346002B47
:1016A00002D0204B204A1A60214B1B682249184661
:1016B000FFF7B6FC0346002B02D01D4B1E4A1A60F2
:1016C0001B4B1B6818491846FFF7C8FC0346002B44
:1016D00002D0174B144A1A60124B1B681A46082195
:1016E0001648FFF74DFE124B1B681A46002114489E
:1016F000FFF746FE074ABB681360044B1B68064AA7
:10170000136000BF1037BD4680BD00BF84030020BA
:101710008C0300207C03002080030020CDCCCC3D36
:10172000080000200C0000200000B442040000204B
:10173000100000200000A04000008C422403002084
:10174000DC020020B0B598B002AF00F057FF00F007
:1017500051FA00F06DFC00F03DFB00F0DBFB00F007
:101760009FFA00F0DBFA00F007FB01220221724829
:1017700001F062FF01224021704801F05DFF082165
:101780006F4803F07BFF00216E4803F077FFFFF7FF
:10179000CFFCFFF713FD00210120FFF719FD6A4878
:1017A000FFF7F7FC4FF47A7000F08AFFFFF706FDB1
:1017B000402266496648FFF77DFD664801F0FCFB64
:1017C00000F074FFF863644AFB6B1360634AFB6BC1
:1017D0001360634AFB6B136001221021574801F02C
:1017E0002BFF00F063FFB8635C4B1B68BA6BD31A26
:1017F000092B40F24881594ABB6B1360FFF75CFE2E
:101800005348FFF7A7FD034619461846FFF762F94C
:1018100003461A46534B1A6000237B6500233B6541
:1018200009E00720FFF7FEFD02467B6D13447B6550
:101830003B6D01333B653B6D092BF2DD786DFFF7A6
:10184000F9F9034648491846FFF700FB03467B6356
:101850004649786BFFF7FAFA034645491846FFF701
:1018600041FA034643491846FFF73CFA03463B63F7
:101870004149386BFFF736FA03461C463F4B1B685D
:101880003F491846FFF72EFA034619462046FFF750
:1018900021F903461A46394B1A60384B1B68394AFE
:1018A00013600023FB640023BB6409E00020FFF702
:1018B000B9FD0246FB6C1344FB64BB6C0133BB6493
:1018C000BB6C092BF2DDF86CFFF7B4F9034626492F
:1018D0001846FFF7BBFA0346FB622449F86AFFF794
:1018E000B5FA034622491846FFF7FCF90346214999
:1018F0001846FFF7F7F90346BB621F49B86AFFF7BE
:10190000F1F903461C46204B1B681D491846FFF79A
:10191000E9F9034619462046FFF7DCF803461A4664
:10192000194B1A60184B1B68184A136000237B641C
:1019300000233B6436E000BF000C0140000801407A
:1019400024030020DC0200205892000888020020B6
:101950006C03002004020020A0030020A403002048
:10196000A80300208C0300200000204100F07F45E8
:101970003333534000003041CDCCCC3D98030020A0
:101980006666663F840300209C03002088030020D5
:101990000120FFF747FD02467B6C13447B643B6CE0
:1019A00001333B643B6C092BF2DD786CFFF742F9A5
:1019B000034678491846FFF749FA03467B627649A1
:1019C000786AFFF743FA034674491846FFF78AF925
:1019D00003463B623B6A19461846FFF77BF803460D
:1019E000FB616F49F869FFF773F803466D491846C4
:1019F000FFF72CFA0346BB616A49B869FFF772F931
:101A000003461C46684B1B6868491846FFF76AF98D
:101A1000034619462046FFF75DF803461A46624B17
:101A20001A60614B1B6862491846FFF7F9FA0346D2
:101A3000002B0DD05C4B1B685E491846FFF70EFB70
:101A40000346002B04D05C4B4FF000021A6003E009
:101A5000554B1B68584A1360574B1C68574B1B6803
:101A600057491846FFF734F803464FF081411846AE
:101A7000FFF7ECF9034619462046FFF729F803461D
:101A80001A464D4B1A604F4B1B68BA6BD31A092B81
:101A900019D94C4ABB6B13604B4B1B684FF07E51FE
:101AA0001846FFF7D1FA0346002B02D0FFF732FDAC
:101AB00009E0464A08214648FFF762FC434A0021F4
:101AC0004448FFF75DFC444B1B68BA6BD31AB3F56F
:101AD000FA7FFFF486AE404ABB6B13600021012001
:101AE000FFF776FB384B1B681846FEF79DFC044653
:101AF0000D46324B1B681846FEF796FC02460B4615
:101B00003846CDE9002322462B46344905F062FAD7
:101B10003B461846FFF73DFB00210220FFF758FB2C
:101B20002F4B1B681846FEF77FFC04460D46224BE0
:101B30001B681846FEF778FC02460B463846CDE98E
:101B4000002322462B46274905F044FA3B46184617
:101B5000FFF71FFB00210320FFF73AFB224B1B6816
:101B60001846FEF761FC04460D46204B1B681846DC
:101B7000FEF75AFC02460B463846CDE900232246C2
:101B80002B461B4905F026FA3B461846FFF701FB9A
:101B900027E600BF0000204100F07F45333353406B
:101BA00000002040CDCCCC3D940300206666663F0B
:101BB000CDCC4C3DCDCC4CBD900300208803002003
:101BC00066665641A8030020840300200000B4424A
:101BD00024030020DC020020A003002068920008FB
:101BE0008C0300207C9200080C00002010000020D4
:101BF0009092000880B594B000AF07F12803282226
:101C00000021184605F049FA07F1140300221A6072
:101C10005A609A60DA601A613B1D00221A605A60AD
:101C20009A60DA600223BB620123BB631023FB636B
:101C300002237B640023BB640023FB6407F12803B9
:101C4000184602F0F7FE0346002B01D000F042FADE
:101C50000F237B610223BB610023FB614FF4806390
:101C60003B6200237B6207F114030021184603F056
:101C700063F90346002B01D000F02CFA02237B60AD
:101C80000023FB603B1D184603F0E4FA0346002BDB
:101C900001D000F01FFA00BF5037BD4680BD0000E4
:101CA00080B584B000AF3B1D00221A605A609A6074
:101CB000184B194A1A60174B00229A60154B0022E4
:101CC0001A73144B00221A75124B4FF46022DA611A
:101CD000104B00225A600F4B01221A610D4800F090
:101CE00013FD0346002B01D000F0F4F900237B60C4
:101CF0000123BB600023FB603B1D1946054800F033
:101D0000C7FF0346002B01D000F0E4F900BF1037F5
:101D1000BD4680BD040200200024014080B500AF14
:101D2000124B134A1A60114B124A5A600F4B002291
:101D30009A600E4B0022DA600C4B4FF480421A611D
:101D40000A4B00225A61094B00229A61074B00227C
:101D5000DA61064B00221A62044801F085FC034652
:101D6000002B01D000F0B6F900BF80BD3402002086
:101D700000540040A086010080B500AF124B134A0A
:101D80001A60114B124A5A600F4B00229A600E4B98
:101D90000022DA600C4B4FF480421A610A4B002299
:101DA0005A61094B00229A61074B0022DA61064B07
:101DB00000221A62044801F057FC0346002B01D0B0
:101DC00000F088F900BF80BD880200200058004064
:101DD000A086010080B596B000AF07F1480300224D
:101DE0001A605A609A60DA6007F1400300221A60B4
:101DF0005A6007F1240300221A605A609A60DA6080
:101E00001A615A619A613B1D20220021184605F093
:101E100044F93E4B3E4A1A603C4B00225A603B4B11
:101E200000229A60394B40F22472DA60374B00226C
:101E30001A61364B00225A61344B80229A61334832
:101E400003F074FB0346002B01D000F043F94FF47C
:101E50008053BB6407F1480319462C4803F062FE27
:101E60000346002B01D000F035F9284803F0ADFB04
:101E70000346002B01D000F02DF910233B64802392
:101E80007B6407F140031946204804F0C3FA034677
:101E9000002B01D000F01EF960237B620023BB629F
:101EA0000023FB6200233B6300237B630023BB63AF
:101EB0000023FB6307F1240300221946134803F0B3
:101EC0006FFD0346002B01D000F004F900237B6076
:101ED0000023BB600023FB6000233B6100237B6188
:101EE0004FF40053BB6100233B623B1D194607487A
:101EF00004F0EEFA0346002B01D000F0EBF80348A3
:101F000000F002FA00BF5837BD4680BDDC02002059
:101F1000002C014080B592B000AF07F138030022D9
:101F20001A605A609A60DA6007F1240300221A608E
:101F30005A609A60DA601A6107F11C0300221A6085
:101F40005A603B4600221A605A609A60DA601A6151
:101F50005A619A61344B354A1A60334B00225A60F9
:101F6000314B00229A60304B40F22472DA602E4BE3
:101F700000221A612C4B00229A612B4803F0D6FAFA
:101F80000346002B01D000F0A5F84FF48053BB634B
:101F900007F138031946244803F0C4FD0346002B1B
:101FA00001D000F097F8204803F00FFB0346002B08
:101FB00001D000F08FF806237B620023BB6207F19B
:101FC00024031946184803F074FE0346002B01D081
:101FD00000F080F80023FB6100233B6207F11C0343
:101FE0001946114804F016FA0346002B01D000F000
:101FF00071F860233B6000237B600023BB600023FB
:102000003B613B4608221946074803F0C9FC0346DA
:10201000002B01D000F05EF8034800F075F900BF16
:102020004837BD4680BD00BF2403002000040040A7
:1020300080B586B000AF07F1080300221A605A602D
:102040009A60DA60204B9B691F4A43F00403936156
:102050001D4B9B6903F004037B607B681A4B9B69F3
:10206000194A43F008039361174B9B6903F0080377
:102070003B603B6800225021144801F0DDFA002249
:102080000221134801F0D8FA5023BB600123FB6002
:1020900000233B6102237B6107F1080319460B48CB
:1020A00001F046F90223BB600123FB6000233B6182
:1020B00002237B6107F108031946054801F038F94E
:1020C00000BF1837BD4680BD001002400008014027
:1020D000000C014080B400AF72B600BF00BFFDE746
:1020E00080B485B000AF154B9B69144A43F00103DF
:1020F0009361124B9B6903F00103BB60BB680F4BFC
:10210000DB690E4A43F08053D3610C4BDB6903F06B
:1021100080537B607B680A4B5B68FB60FB6823F045
:10212000E063FB60FB6843F00073FB60044AFB68FC
:10213000536000BF1437BD4680BC7047001002409A
:102140000000014080B588B000AF786007F110034F
:1021500000221A605A609A60DA607B681B68144A31
:10216000934221D1134B9B69124A43F4007393614C
:10217000104B9B6903F40073FB60FB680D4B9B697C
:102180000C4A43F0040393610A4B9B6903F0040378
:10219000BB60BB6883233B6103237B6107F11003B2
:1021A0001946054801F0C4F800BF2037BD4680BD80
:1021B00000240140001002400008014080B58AB0B0
:1021C00000AF786007F1180300221A605A609A6025
:1021D000DA607B681B682B4A934224D12A4B9B69A7
:1021E000294A43F008039361274B9B6903F00803D6
:1021F0007B617B69C023BB611223FB6103237B628C
:1022000007F118031946214801F092F81E4BDB69CB
:102210001D4A43F40013D3611B4BDB6903F4001325
:102220003B613B6929E07B681B68194A934224D1D2
:10223000154B9B69144A43F008039361124B9B6949
:1022400003F00803FB60FB684FF44063BB6112239B
:10225000FB6103237B6207F1180319460B4801F069
:1022600067F8094BDB69084A43F48003D361064BE6
:10227000DB6903F48003BB60BB6800BF2837BD4641
:1022800080BD00BF0054004000100240000C01401F
:102290000058004080B584B000AF78607B681B6850
:1022A000164A93420CD1164B9B69154A43F40063BE
:1022B0009361134B9B6903F40063FB60FB6818E0B8
:1022C0007B681B680F4A934213D10D4BDB690C4AA4
:1022D00043F00203D3610A4BDB6903F00203BB60E6
:1022E000BB68002200211D2000F0EBFF1D2001F043
:1022F00004F800BF1037BD4680BD00BF002C014070
:10230000001002400004004080B588B000AF786043
:1023100007F1100300221A605A609A60DA607B6845
:102320001B681F4A934219D11E4B9B691D4A43F0FB
:10233000040393611B4B9B6903F00403FB60FB6880
:102340004FF480733B6102237B610223FB6107F141
:1023500010031946144800F0EBFF1CE07B681B6873
:10236000124A934217D10F4B9B690E4A43F0080360
:1023700093610C4B9B6903F00803BB60BB680123AE
:102380003B6102237B610223FB6107F110031946C5
:10239000074800F0CDFF00BF2037BD4680BD00BF1D
:1023A000002C0140001002400008014000040040E1
:1023B000000C014080B400AF00BFFDE780B400AF67
:1023C00000BFFDE780B400AF00BFFDE780B400AF01
:1023D00000BFFDE780B400AF00BFFDE780B400AFF1
:1023E00000BFBD4680BC704780B400AF00BFBD4693
:1023F00080BC704780B400AF00BFBD4680BC704752
:1024000080B500AF00F040F900BF80BD80B500AFDF
:10241000024803F0D5F900BF80BD00BF24030020AF
:1024200080B400AF01231846BD4680BC704780B51C
:1024300082B000AF7860396004F082FE0346162255
:102440001A604FF0FF3318460837BD4680BD80B58F
:1024500082B000AF78604FF0FF317868FFF7E7FF98
:1024600000BFFDE780B586B000AFF860B9607A6064
:1024700000237B610AE0AFF300800146BB685A1C71
:10248000BA60CAB21A707B6901337B617A697B6872
:102490009A42F0DB7B6818461837BD4680BD80B590
:1024A00086B000AFF860B9607A6000237B6109E014
:1024B000BB685A1CBA601B781846AFF300807B6972
:1024C00001337B617A697B689A42F1DB7B6818464D
:1024D0001837BD4680BD80B483B000AF78604FF040
:1024E000FF3318460C37BD4680BC704780B483B0BC
:1024F00000AF786039603B684FF400525A600023A7
:1025000018460C37BD4680BC704780B483B000AF1E
:102510007860012318460C37BD4680BC704780B4F4
:1025200085B000AFF860B9607A60002318461437B0
:10253000BD4680BC7047000080B586B000AF7860B3
:10254000144A154BD31A7B617B693B61134B1B68A3
:10255000002B02D1114B124A1A60104B1A687B688B
:1025600013443A699A4207D204F0EAFD03460C226A
:102570001A604FF0FF3309E0084B1B68FB60074B04
:102580001A687B681344054A1360FB6818461837BD
:10259000BD4680BD0050002000040000AC030020B8
:1025A0000005002080B400AF00BFBD4680BC70476E
:1025B000FFF7F8FF0B480C490C4A002302E0D458FF
:1025C000C4500433C4188C42F9D3094A094C00237F
:1025D00001E013600432A242FBD304F0B7FDFFF721
:1025E000B1F8704700000020E8010020689600085C
:1025F000E801002000050020FEE7000080B500AFE4
:10260000084B1B68074A43F010031360032000F0D7
:102610004DFE0F2000F008F8FFF762FD002318467A
:1026200080BD00BF0020024080B582B000AF78605E
:10263000124B1A68124B1B7819464FF47A73B3FB8E
:10264000F1F3B2FBF3F3184600F065FE0346002BEE
:1026500001D001230EE07B680F2B0AD80022796895
:102660004FF0FF3000F02DFE064A7B681360002318
:1026700000E0012318460837BD4680BD1400002045
:102680001C0000201800002080B400AF054B1B7810
:102690001A46054B1B681344034A136000BFBD462E
:1026A00080BC70471C000020B003002080B400AF45
:1026B000024B1B681846BD4680BC7047B003002023
:1026C00080B584B000AF7860FFF7F0FFB8607B683A
:1026D000FB60FB68B3F1FF3F05D00A4B1B781A463D
:1026E000FB681344FB6000BFFFF7E0FF0246BB68D6
:1026F000D31AFA689A42F7D800BF00BF1037BD4618
:1027000080BD00BF1C00002080B586B000AF78609F
:102710000023FB7500233B610023BB600023FB60AB
:102720007B68002B01D10123BEE07B689B68002BF6
:102730007B689B6A002B09D17B680022DA627B6888
:10274000002283F824207868FFF7FCFC786800F00A
:10275000F1FB0346FB757B689B6A03F01003002BBB
:1027600040F09980FB7D002B40F095807B689B6A50
:1027700023F4885323F0020343F002027B689A6239
:102780007B685A687B68DB691A437B681B7B5B004C
:102790001343BA681343BB607B689B68B3F5807FC3
:1027A00003D07B689B68012B02D14FF4807300E05B
:1027B00000233A6913433B617B681B7D012B19D1D0
:1027C0007B681B7B002B09D17B689B69013B5A030B
:1027D0003B69134343F400633B610BE07B689B6AF6
:1027E00043F020027B689A627B68DB6A43F0010257
:1027F0007B68DA627B681B685B6823F469417B68ED
:102800001B683A690A435A607B681B689A68284BC0
:1028100013407A681268B9680B4393607B689B68C1
:10282000B3F5807F03D07B689B68012B04D17B6864
:102830001B69013B1B05FB607B681B68DB6A23F49B
:1028400070017B681B68FA680A43DA627B681B6860
:102850009A68184B1340BA689A420BD17B680022E1
:10286000DA627B689B6A23F0030343F001027B6812
:102870009A6218E07B689B6A23F0120343F010020F
:102880007B689A627B68DB6A43F001027B68DA62EC
:102890000123FB7507E07B689B6A43F010027B68AD
:1028A0009A620123FB75FB7D18461837BD4680BD33
:1028B000FDF7E1FFFE0E1FFF80B584B000AF78602A
:1028C0000023FB737B6893F82430012B01D1022392
:1028D00098E07B68012283F82420786800F0D0FA21
:1028E0000346FB73FB7B002B40F087807B689B6A71
:1028F00023F4407323F0010343F480727B689A62EF
:102900007B681B68414A934205D1414B5B6803F4E5
:102910007023002B15D17B689B6A23F480127B689F
:102920009A627B681B685B6803F48063002B26D087
:102930007B689B6A23F4405343F480527B689A621D
:102940001DE07B689B6A43F480127B689A627B6817
:102950001B682F4A934204D07B681B682B4A934222
:102960000DD12B4B5B6803F48063002B07D07B6891
:102970009B6A23F4405343F480527B689A627B68DD
:102980009B6A03F48053002B06D07B68DB6A23F03C
:1029900006027B68DA6202E07B680022DA627B680A
:1029A000002283F824207B681B686FF002021A6003
:1029B0007B681B689B6803F46023B3F5602F13D119
:1029C0007B681B68114A934205D1114B5B6803F485
:1029D0007023002B08D17B681B689A687B681B6892
:1029E00042F4A0029A600CE07B681B689A687B68DE
:1029F0001B6842F480129A6003E07B68002283F82F
:102A00002420FB7B18461037BD4680BD00280140BE
:102A10000024014080B584B000AF78600023FB73D0
:102A20007B6893F82430012B01D102231AE07B68E4
:102A3000012283F82420786800F07CFA0346FB73B7
:102A4000FB7B002B09D17B689B6A23F4885323F01E
:102A5000010343F001027B689A627B68002283F8DD
:102A60002420FB7B18461037BD4680BD90B587B04B
:102A700000AF7860396000237B610023FB60002396
:102A80003B61FFF713FE78617B681B689B6803F46A
:102A90008073002B0BD07B689B6A43F020027B681D
:102AA0009A627B68002283F824200123D3E07B68AC
:102AB0001B685B6803F48073002B31D17B681B6853
:102AC000DB6A03F47003002B2AD121E03B68B3F1E9
:102AD000FF3F1DD03B68002B07D0FFF7E7FD024604
:102AE0007B69D31A3A689A4212D27B681B681B68CA
:102AF00003F00203002B0BD17B689B6A43F00402B6
:102B00007B689A627B68002283F824200323A2E07A
:102B10007B681B681B6803F00203002BD6D070E0B3
:102B20004F4B1C68022002F04BFC0346B4FBF3F24F
:102B30007B681B6819694B4B0B40002B18D17B68D5
:102B40001B68D968484B0B40002B11D17B681B6870
:102B50001969464B0B40002B08D17B681B68D9686C
:102B6000434B0B40002B01D1142320E029231EE00E
:102B70007B681B6819693D4B0B40002B06D17B68B5
:102B80001B68D9683A4B0B40002B0DD07B681B6843
:102B90001969384B0B40002B08D17B681B68D9683A
:102BA000344B0B40002B01D1542300E0FC2302FBEB
:102BB00003F33B6121E03B68B3F1FF3F1AD03B6870
:102BC000002B07D0FFF772FD02467B69D31A3A68E3
:102BD0009A420FD2FB683A699A420BD97B689B6A8A
:102BE00043F004027B689A627B68002283F8242009
:102BF000032330E0FB680133FB60FB683A699A42CB
:102C0000D9D87B681B686FF012021A607B689B6AD8
:102C100043F400727B689A627B681B689B6803F4CC
:102C20006023B3F5602F15D17B681B7B002B11D17E
:102C30007B689B6A23F480727B689A627B689B6ADC
:102C400003F48053002B05D17B689B6A43F001029B
:102C50007B689A62002318461C37BD4690BD00BFB2
:102C600014000020244992242449920092244912FD
:102C7000922449004992240080B483B000AF786068
:102C80007B681B68DB6C18460C37BD4680BC704700
:102C900080B485B000AF786039600023FB730023F7
:102CA000BB607B6893F82430012B01D10223DCE068
:102CB0007B68012283F824203B685B68062B1CD8C4
:102CC0007B681B68596B3B685A6813469B0013442A
:102CD000053B1F2202FA03F3DB4319403B681868E7
:102CE0003B685A6813469B001344053B00FA03F205
:102CF0007B681B680A435A633CE03B685B680C2BAB
:102D00001CD87B681B68196B3B685A6813469B008C
:102D10001344233B1F2202FA03F3DB4319403B68B1
:102D200018683B685A6813469B001344233B00FA1B
:102D300003F27B681B680A431A631BE07B681B680D
:102D4000D96A3B685A6813469B001344413B1F22D3
:102D500002FA03F3DB4319403B6818683B685A6882
:102D600013469B001344413B00FA03F27B681B6847
:102D70000A43DA623B681B68092B1CD97B681B6815
:102D8000D9683B681A6813465B0013441E3B072250
:102D900002FA03F3DB4319403B6898683B681A6802
:102DA00013465B0013441E3B00FA03F27B681B686A
:102DB0000A43DA6019E07B681B6819693B681A6886
:102DC00013465B001344072202FA03F3DB43194066
:102DD0003B6898683B681A6813465B00134400FA26
:102DE00003F27B681B680A431A613B681B68102B5F
:102DF00003D03B681B68112B32D17B681B681D4ACE
:102E0000934225D17B681B689B6803F40003002B69
:102E100026D17B681B689A687B681B6842F40002B5
:102E20009A603B681B68102B1AD1134B1B68134A1E
:102E3000A2FB03239A0C13469B0013445B00BB6068
:102E400002E0BB68013BBB60BB68002BF9D107E027
:102E50007B689B6A43F020027B689A620123FB73C4
:102E60007B68002283F82420FB7B18461437BD467C
:102E700080BC7047002401401400002083DE1B4307
:102E800080B584B000AF78600023FB600023BB6096
:102E90007B681B689B6803F00103012B40D07B68B3
:102EA0001B689A687B681B6842F001029A601F4B9E
:102EB0001B681F4AA2FB03239B0CBB6002E0BB689C
:102EC000013BBB60BB68002BF9D1FFF7EFFBF8605B
:102ED0001FE0FFF7EBFB0246FB68D31A022B18D961
:102EE0007B681B689B6803F00103012B11D07B6892
:102EF0009B6A43F010027B689A627B68DB6A43F04E
:102F000001027B68DA627B68002283F824200123B7
:102F100007E07B681B689B6803F00103012BD8D195
:102F2000002318461037BD4680BD00BF14000020A6
:102F300083DE1B4380B584B000AF78600023FB6064
:102F40007B681B689B6803F00103012B2ED17B6813
:102F50001B689A687B681B6822F001029A60FFF781
:102F6000A5FBF8601BE0FFF7A1FB0246FB68D31A44
:102F7000022B14D97B681B689B6803F00103012BAB
:102F80000DD17B689B6A43F010027B689A627B6874
:102F9000DB6A43F001027B68DA62012307E07B68A9
:102FA0001B689B6803F00103012BDCD0002318464B
:102FB0001037BD4680BD000090B587B000AF786087
:102FC0000023FB750023FB607B6893F82430012B02
:102FD00001D1022397E07B68012283F824207868DE
:102FE000FFF7A8FF0346FB757868FFF749FF034624
:102FF000FB75FB7D002B40F081807B689B6A23F48E
:10300000885323F0020343F002027B689A62404B2C
:103010001C68022002F0D4F90346B4FBF3F35B0012
:10302000FB6002E0FB68013BFB60FB68002BF9D111
:103030007B681B689A687B681B6842F008029A608C
:10304000FFF734FB38611BE0FFF730FB02463B69BA
:10305000D31A0A2B14D97B681B689B6803F00803FA
:10306000002B0DD07B689B6A23F0120343F0100203
:103070007B689A627B68002283F82420012342E067
:103080007B681B689B6803F00803002BDCD17B681E
:103090001B689A687B681B6842F004029A60FFF71D
:1030A00005FB38611BE0FFF701FB02463B69D31AC1
:1030B0000A2B14D97B681B689B6803F00403002B60
:1030C0000DD07B689B6A23F0120343F010027B68EB
:1030D0009A627B68002283F82420012313E07B6836
:1030E0001B689B6803F00403002BDCD17B689B6AA0
:1030F00023F0030343F001027B689A627B6800229D
:1031000083F82420FB7D18461C37BD4690BD00BFC8
:103110001400002080B485B000AF78607B6803F0B5
:103120000703FB600C4BDB68BB60BA684FF6FF031C
:103130001340BB60FB681A02BB68134343F0BF63D4
:1031400043F40033BB60044ABB68D36000BF14374C
:10315000BD4680BC704700BF00ED00E080B400AF0A
:10316000044BDB681B0A03F007031846BD4680BC0E
:10317000704700BF00ED00E080B483B000AF0346AD
:10318000FB7197F90730002B0BDBFB7903F01F0273
:10319000064997F907305B09012000FA02F241F86D
:1031A000232000BF0C37BD4680BC704700E100E023
:1031B00080B483B000AF03463960FB7197F90730E4
:1031C000002B0ADB3B68DAB20C4997F90730120191
:1031D000D2B20B4483F800230AE03B68DAB2084914
:1031E000FB7903F00F03043B1201D2B20B441A76B1
:1031F00000BF0C37BD4680BC704700BF00E100E057
:1032000000ED00E080B489B000AFF860B9607A608A
:10321000FB6803F00703FB61FB69C3F10703042BA1
:1032200028BF0423BB61FB690433062B02D9FB6969
:10323000033B00E000237B614FF0FF32BB6902FAE1
:1032400003F3DA43BB681A407B699A404FF0FF31C1
:103250007B6901FA03F3D9437B680B40134318469B
:103260002437BD4680BC704780B582B000AF78601F
:103270007B68013BB3F1807F01D301230FE00A4A51
:103280007B68013B53600F214FF0FF30FFF790FF49
:10329000054B00229A60044B07221A60002318464F
:1032A0000837BD4680BD00BF10E000E080B582B0A9
:1032B00000AF78607868FFF72DFF00BF0837BD4684
:1032C00080BD80B586B000AF0346B9607A60FB73FD
:1032D00000237B61FFF742FF78617A68B9687869FB
:1032E000FFF790FF024697F90F3011461846FFF797
:1032F0005FFF00BF1837BD4680BD80B582B000AF0C
:103300000346FB7197F907301846FFF735FF00BFFA
:103310000837BD4680BD80B582B000AF7860786860
:10332000FFF7A2FF034618460837BD4680BD0000E0
:1033300080B48BB000AF7860396000237B620023DB
:103340003B6269E101227B6A02FA03F3FB613B689D
:103350001B68FA691340BB61BA69FB699A4240F085
:1033600058813B685B689A4A93425ED0984A934280
:1033700075D8984A934258D0964A93426FD8964A45
:10338000934252D0944A934269D8944A93424CD083
:10339000924A934263D8924A934246D0904A9342CB
:1033A0005DD8122B2AD8122B59D801A252F823F03B
:1033B0002B3400080534000817340008593400087D
:1033C0005F3400085F3400085F3400085F34000891
:1033D0005F3400085F3400085F3400085F34000881
:1033E0005F3400085F3400085F3400085F34000871
:1033F0005F3400080D34000821340008794A9342F4
:1034000013D02CE03B68DB683B6229E03B68DB685B
:1034100004333B6224E03B68DB6808333B621FE017
:103420003B68DB680C333B621AE03B689B68002B0F
:1034300002D104233B6213E03B689B68012B05D15A
:1034400008233B627B68FA691A6109E008233B6242
:103450007B68FA695A6103E000233B6200E000BF29
:10346000BB69FF2B01D87B6801E07B6804337B617B
:10347000BB69FF2B02D87B6A9B0002E07B6A083B9A
:103480009B003B617B691A680F213B6901FA03F3DA
:10349000DB431A40396A3B6901FA03F31A437B693B
:1034A0001A603B685B6803F08053002B00F0B1802A
:1034B0004D4B9B694C4A43F0010393614A4B9B6916
:1034C00003F00103BB60BB68484A7B6A9B08023378
:1034D00052F82330FB607B6A03F003039B000F224A
:1034E00002FA03F3DB43FA681340FB607B68404A4F
:1034F000934213D07B683F4A93420DD07B683E4A8B
:10350000934207D07B683D4A934201D1032306E0F2
:10351000042304E0022302E0012300E000237A6A8E
:1035200002F0030292009340FA681343FB602F49B4
:103530007B6A9B080233FA6841F823203B685B688A
:1035400003F48013002B06D02D4B9A682C49BB69DD
:1035500013438B6006E02A4B9A68BB69DB4328491A
:1035600013408B603B685B6803F40013002B06D0AC
:10357000234BDA682249BB691343CB6006E0204B3A
:10358000DA68BB69DB431E491340CB603B685B686C
:1035900003F40033002B06D0194B5A681849BB6955
:1035A00013434B6006E0164B5A68BB69DB43144972
:1035B00013404B603B685B6803F48033002B21D0E1
:1035C0000F4B1A680E49BB6913430B6021E000BF23
:1035D0000000321000003110000022100000211005
:1035E0000000121000001110001002400000014005
:1035F00000080140000C014000100140001401408F
:10360000000401400B4B1A68BB69DB4309491340B6
:103610000B607B6A01337B623B681A687B6A22FA23
:1036200003F3002B7FF48EAE00BF00BF2C37BD46E6
:1036300080BC70470004014080B483B000AF786064
:103640000B467B8013467B707B78002B03D07A88F7
:103650007B681A6103E07B881A047B681A6100BFEB
:103660000C37BD4680BC704780B584B000AF786031
:103670007B68002B01D101232BE17B6893F83D305F
:10368000DBB2002B06D17B68002283F83C207868EF
:10369000FEF794FD7B68242283F83D207B681B683D
:1036A0001A687B681B6822F001021A607B681B683D
:1036B0001A687B681B6842F400421A607B681B68CA
:1036C0001A687B681B6822F400421A6001F07CFDD6
:1036D000F8607B685B68814A934207D8FB68804A40
:1036E000934294BF01230023DBB206E0FB687D4ACE
:1036F000934294BF01230023DBB2002B01D00123AE
:10370000E7E0FB68784AA2FB03239B0CBB607B6865
:103710001B685B6823F03F017B681B68BA680A433B
:103720005A607B681B681B6A23F03F017B685B68FB
:103730006A4A934202D8BB68013309E0BB684FF480
:10374000967202FB03F3694AA2FB03239B09013330
:103750007A6812680B4313627B681B68DB6923F489
:103760004F4222F0FF027B685B685C498B4219D8AC
:10377000FB68591E7B685B685B00B1FBF3F3591C67
:1037800040F6FC730B40002B0AD0FB68591E7B6887
:103790005B685B00B1FBF3F30133C3F30B0351E050
:1037A00004234FE07B689B68002B11D1FB68581EF7
:1037B0007B6859680B465B000B44B0FBF3F30133A5
:1037C000C3F30B03002B0CBF01230023DBB212E079
:1037D000FB68581E7B6859680B469B000B44990098
:1037E0000B44B0FBF3F30133C3F30B03002B0CBF0B
:1037F00001230023DBB2002B01D0012322E07B68F0
:103800009B68002B0ED1FB68581E7B6859680B46DD
:103810005B000B44B0FBF3F30133C3F30B0343F43E
:1038200000430FE0FB68581E7B6859680B469B00FD
:103830000B4499000B44B0FBF3F30133C3F30B03C8
:1038400043F44043796809681343CB617B681B6884
:103850001B6823F0C0017B68DA697B681B6A1A4326
:103860007B681B680A431A607B681B689B6823F4AB
:10387000034323F0FF037A6811697A68D268114321
:103880007A6812680B4393607B681B68DB6823F0DF
:10389000FF017B685A697B689B691A437B681B68D8
:1038A0000A43DA607B681B681A687B681B6842F011
:1038B00001021A607B6800221A647B68202283F868
:1038C0003D207B6800221A637B68002283F83E203B
:1038D000002318461037BD4680BD00BFA0860100FA
:1038E0007F841E00FF083D0083DE1B43D34D621022
:1038F00080B588B002AFF8607A601A460B467B81CB
:1039000013463B81FEF7D2FE7861FB6893F83D30A9
:10391000DBB2202B40F0E0807B6900931923012269
:103920007049F86800F050FE0346002B01D00223D6
:10393000D3E0FB6893F83C30012B01D10223CCE0AB
:10394000FB68012283F83C20FB681B681B6803F0BE
:103950000103012B07D0FB681B681A68FB681B6812
:1039600042F001021A60FB681B681A68FB681B685A
:1039700022F400621A60FB68212283F83D20FB6874
:10398000102283F83E20FB6800221A64FB687A68E4
:103990005A62FB683A895A85FB685B8D9AB2FB686C
:1039A0001A85FB68504ADA6279897B693A6AF86855
:1039B00000F00AFC0346002B01D001238DE0002318
:1039C0003B61FB681B685B693B61FB681B689B692B
:1039D0003B613B6966E07A69396AF86800F00EFF7E
:1039E0000346002B0DD0FB681B6C042B07D1FB6832
:1039F0001B681A68FB681B6842F400721A60012396
:103A00006BE0FB685B6A1A78FB681B681A61FB68ED
:103A10005B6A5A1CFB685A62FB685B8D9BB2013B78
:103A20009AB2FB685A85FB681B8D013B9AB2FB6812
:103A30001A85FB681B685B6903F00403042B1BD128
:103A4000FB681B8D002B17D0FB685B6A1A78FB683C
:103A50001B681A61FB685B6A5A1CFB685A62FB6848
:103A60005B8D9BB2013B9AB2FB685A85FB681B8D4C
:103A7000013B9AB2FB681A857A69396AF86800F0E6
:103A800005FF0346002B0DD0FB681B6C042B07D1F0
:103A9000FB681B681A68FB681B6842F400721A60B6
:103AA00001231AE0FB681B8D002B94D1FB681B6877
:103AB0001A68FB681B6842F400721A60FB682022D7
:103AC00083F83D20FB68002283F83E20FB6800223B
:103AD00083F83C20002300E0022318461837BD4637
:103AE00080BD00BF020010000000FFFF80B588B05D
:103AF00002AFF860084611461A4603467B810B4622
:103B00003B811346FB80FEF7D1FD7861FB6893F89B
:103B10003D30DBB2202B40F0D9807B690093192324
:103B200001226D49F86800F04FFD0346002B01D0DB
:103B30000223CCE0FB6893F83C30012B01D1022337
:103B4000C5E0FB68012283F83C20FB681B681B680A
:103B500003F00103012B07D0FB681B681A68FB68A0
:103B60001B6842F001021A60FB681B681A68FB6858
:103B70001B6822F400621A60FB68212283F83D2052
:103B8000FB68402283F83E20FB6800221A64FB6831
:103B90003A6A5A62FB68BA8C5A85FB685B8D9AB2A6
:103BA000FB681A85FB684D4ADA62F8883A89798998
:103BB0007B690193BB6A00930346F86800F086FBBB
:103BC0000346002B52D0012381E07A69B96AF86874
:103BD00000F014FE0346002B0DD0FB681B6C042B79
:103BE00007D1FB681B681A68FB681B6842F4007207
:103BF0001A6001236BE0FB685B6A1A78FB681B683C
:103C00001A61FB685B6A5A1CFB685A62FB681B8D71
:103C1000013B9AB2FB681A85FB685B8D9BB2013B46
:103C20009AB2FB685A85FB681B685B6903F0040362
:103C3000042B1BD1FB681B8D002B17D0FB685B6A24
:103C40001A78FB681B681A61FB685B6A5A1CFB6880
:103C50005A62FB681B8D013B9AB2FB681A85FB68B0
:103C60005B8D9BB2013B9AB2FB685A85FB681B8D4A
:103C7000002BAAD17A69B96AF86800F007FE0346FA
:103C8000002B0DD0FB681B6C042B07D1FB681B6855
:103C90001A68FB681B6842F400721A60012316E080
:103CA000FB681B681A68FB681B6842F400721A60A4
:103CB000FB68202283F83D20FB68002283F83E2029
:103CC000FB68002283F83C20002300E00223184612
:103CD0001837BD4680BD00BF020010000000FFFF86
:103CE00080B58CB002AFF860084611461A4603460C
:103CF0007B810B463B811346FB8000233B62FEF732
:103D0000D5FC7862FB6893F83D30DBB2202B40F0A5
:103D100050827B6A0093192301228249F86800F0DF
:103D200053FC0346002B01D0022343E2FB6893F8C7
:103D30003C30012B01D102233CE2FB68012283F8D5
:103D40003C20FB681B681B6803F00103012B07D0B4
:103D5000FB681B681A68FB681B6842F001021A6066
:103D6000FB681B681A68FB681B6822F400621A6013
:103D7000FB68222283F83D20FB68402283F83E2026
:103D8000FB6800221A64FB683A6B5A62FB68BA8EC1
:103D90005A85FB685B8D9AB2FB681A85FB68624A9C
:103DA000DA62F8883A8979897B6A0193BB6B009360
:103DB0000346F86800F020FB0346002B01D00123E6
:103DC000F8E1FB681B8D002B13D10023FB61FB681E
:103DD0001B685B69FB61FB681B689B69FB61FB6996
:103DE000FB681B681A68FB681B6842F400721A6063
:103DF000CCE1FB681B8D012B1ED1FB681B681A6888
:103E0000FB681B6822F480621A6072B600BF002350
:103E1000BB61FB681B685B69BB61FB681B689B69D6
:103E2000BB61BB69FB681B681A68FB681B6842F4CE
:103E300000721A6062B635E0FB681B8D022B1ED142
:103E4000FB681B681A68FB681B6842F400621A6012
:103E500072B600BF00237B61FB681B685B697B61F6
:103E6000FB681B689B697B617B69FB681B681A6840
:103E7000FB681B6822F480621A6062B612E0FB687D
:103E80001B681A68FB681B6842F480621A60002392
:103E90003B61FB681B685B693B61FB681B689B6956
:103EA0003B613B6972E1FB681B8D032B00F21F81B4
:103EB000FB681B8D012B23D17A6AB96BF86800F07F
:103EC0002DFD0346002B01D0012373E1FB681B6825
:103ED0001A69FB685B6AD2B21A70FB685B6A5A1C8B
:103EE000FB685A62FB681B8D013B9AB2FB681A851E
:103EF000FB685B8D9BB2013B9AB2FB685A8545E13A
:103F0000FB681B8D022B52D17B6A0093BB6B002296
:103F10000649F86800F058FB0346002B08D001233F
:103F200048E100BF020010000000FFFF0400010094
:103F300072B600BFFB681B681A68FB681B6842F416
:103F400000721A60FB681B681A69FB685B6AD2B270
:103F50001A70FB685B6A5A1CFB685A62FB681B8D0F
:103F6000013B9AB2FB681A85FB685B8D9BB2013BF3
:103F70009AB2FB685A8562B600BFFB681B681A6973
:103F8000FB685B6AD2B21A70FB685B6A5A1CFB68FA
:103F90005A62FB681B8D013B9AB2FB681A85FB686D
:103FA0005B8D9BB2013B9AB2FB685A85EEE07B6A5F
:103FB0000093BB6B00228149F86800F005FB0346C3
:103FC000002B01D00123F5E0FB681B681A68FB6831
:103FD0001B6822F480621A6072B600BFFB681B681F
:103FE0001A69FB685B6AD2B21A70FB685B6A5A1C7A
:103FF000FB685A62FB681B8D013B9AB2FB681A850D
:10400000FB685B8D9BB2013B9AB2FB685A856C4B97
:104010001B68DB086B4AA2FB03231A0A13469B00AA
:104020001344DA00D31A3B623B6A013B3B623B6AB2
:10403000002B18D1FB6800221A63FB68202283F84A
:104040003D20FB68002283F83E20FB681B6C43F098
:104050002002FB681A6462B600BFFB68002283F886
:104060003C200123A6E0FB681B685B6903F00403A6
:10407000042BD9D1FB681B681A68FB681B6842F4E3
:1040800000721A60FB681B681A69FB685B6AD2B22F
:104090001A70FB685B6A5A1CFB685A62FB681B8DCE
:1040A000013B9AB2FB681A85FB685B8D9BB2013BB2
:1040B0009AB2FB685A8562B600BFFB681B681A6932
:1040C000FB685B6AD2B21A70FB685B6A5A1CFB68B9
:1040D0005A62FB681B8D013B9AB2FB681A85FB682C
:1040E0005B8D9BB2013B9AB2FB685A854EE07A6ABF
:1040F000B96BF86800F012FC0346002B01D00123D5
:1041000058E0FB681B681A69FB685B6AD2B21A70D8
:10411000FB685B6A5A1CFB685A62FB681B8D013B9B
:104120009AB2FB681A85FB685B8D9BB2013B9AB221
:10413000FB685A85FB681B685B6903F00403042B6A
:1041400024D1FB681B8D032B07D1FB681B681A6801
:10415000FB681B6822F480621A60FB681B681A699E
:10416000FB685B6AD2B21A70FB685B6A5A1CFB6818
:104170005A62FB681B8D013B9AB2FB681A85FB688B
:104180005B8D9BB2013B9AB2FB685A85FB681B8D25
:10419000002B7FF488AEFB68202283F83D20FB686B
:1041A000002283F83E20FB68002283F83C20002395
:1041B00000E0022318462837BD4680BD04000100F8
:1041C0001400002089B5F81480B588B002AFF860FB
:1041D0007A603B600B467B81FB68DB6A7B617B69B5
:1041E000082B06D07B69012B03D07B6913F5803F38
:1041F00008D1FB681B681A68FB681B6842F4807270
:104200001A600BE0FB681B6B122B07D1FB681B6865
:104210001A68FB681B6842F480721A603B6800935E
:104220007B6800224FF00111F86800F0CDF90346D9
:10423000002B0DD0FB681B681B6803F48073B3F57B
:10424000807F03D1FB684FF400721A64032335E0CA
:10425000FB681B69B3F5804F08D17B89DBB21A4636
:10426000FB681B6802F0FE021A611BE07B89DB1110
:10427000DBB203F00603DBB263F00F03DAB2FB68D4
:104280001B681A613B687A680E49F86800F016FAF4
:104290000346002B01D0012310E07B89DAB2FB68D2
:1042A0001B681A613B687A680749F86800F006FAEB
:1042B0000346002B01D0012300E0002318461837E5
:1042C000BD4680BD080001000200010080B588B035
:1042D00002AFF860084611461A4603467B810B463A
:1042E0003B811346FB80FB681B681A68FB681B68F0
:1042F00042F480721A607B6A00933B6A00224FF09E
:104300000111F86800F060F90346002B0DD0FB683E
:104310001B681B6803F48073B3F5807F03D1FB68CF
:104320004FF400721A6403235FE07B89DBB21A4604
:10433000FB681B6802F0FE021A617B6A3A6A2D492B
:10434000F86800F0BBF90346002B01D001234CE0D4
:1043500000237B61FB681B685B697B61FB681B68F2
:104360009B697B617B697A6A396AF86800F046FA72
:104370000346002B0DD0FB681B6C042B07D1FB6898
:104380001B681A68FB681B6842F400721A600123FC
:104390002BE0FB88012B05D13B89DAB2FB681B6857
:1043A0001A6121E03B891B0A9BB2DAB2FB681B68E9
:1043B0001A617A6A396AF86800F020FA0346002B1D
:1043C0000DD0FB681B6C042B07D1FB681B681A68B7
:1043D000FB681B6842F400721A60012305E03B8908
:1043E000DAB2FB681B681A61002318461837BD460D
:1043F00080BD00BF0200010080B588B002AFF86048
:10440000084611461A4603467B810B463B811346FC
:10441000FB80FB681B681A68FB681B6842F48062BB
:104420001A60FB681B681A68FB681B6842F480729C
:104430001A607B6A00933B6A00224FF00111F86812
:1044400000F0C2F80346002B0DD0FB681B681B6808
:1044500003F48073B3F5807F03D1FB684FF40072DF
:104460001A640323AAE07B89DBB21A46FB681B6847
:1044700002F0FE021A617B6A3A6A5249F86800F05B
:104480001DF90346002B01D0012397E000237B6137
:10449000FB681B685B697B61FB681B689B697B61D0
:1044A0007B697A6A396AF86800F0A8F90346002B3C
:1044B0000DD0FB681B6C042B07D1FB681B681A68C6
:1044C000FB681B6842F400721A60012376E0FB88E7
:1044D000012B05D13B89DAB2FB681B681A6121E028
:1044E0003B891B0A9BB2DAB2FB681B681A617A6AC5
:1044F000396AF86800F082F90346002B0DD0FB689A
:104500001B6C042B07D1FB681B681A68FB681B68CF
:1045100042F400721A60012350E03B89DAB2FB6872
:104520001B681A617A6A396AF86800F067F903460D
:10453000002B0DD0FB681B6C042B07D1FB681B689C
:104540001A68FB681B6842F400721A60012335E0A8
:10455000FB681B681A68FB681B6842F480721A606B
:104560007B6A00933B6A00224FF00111F86800F06B
:104570002BF80346002B0DD0FB681B681B6803F467
:104580008073B3F5807F03D1FB684FF400721A6427
:10459000032313E07B89DBB243F00103DAB2FB684B
:1045A0001B681A617B6A3A6A0649F86800F086F867
:1045B0000346002B01D0012300E0002318461837E2
:1045C000BD4680BD0200010080B584B000AFF86038
:1045D000B9603B601346FB7148E03B68B3F1FF3FB5
:1045E00044D0FEF763F80246BB69D31A3A689A4290
:1045F00002D33B68002B39D1BB681B0CDBB2012B0B
:104600000DD1FB681B685B69DA43BB6813409BB242
:10461000002B0CBF01230023DBB21A460CE0FB6821
:104620001B689B69DA43BB6813409BB2002B0CBF2D
:1046300001230023DBB21A46FB799A4216D1FB68AC
:1046400000221A63FB68202283F83D20FB680022C9
:1046500083F83E20FB681B6C43F02002FB681A6461
:10466000FB68002283F83C20012323E0BB681B0C7D
:10467000DBB2012B0DD1FB681B685B69DA43BB68B9
:1046800013409BB2002B0CBF01230023DBB21A4660
:104690000CE0FB681B689B69DA43BB6813409BB264
:1046A000002B0CBF01230023DBB21A46FB799A4290
:1046B00093D0002318461037BD4680BD80B584B026
:1046C00000AFF860B9607A603B6071E0FB681B681E
:1046D0005B6903F48063B3F5806F23D1FB681B68CB
:1046E0001A68FB681B6842F400721A60FB681B685A
:1046F0006FF480625A61FB6800221A63FB68202213
:1047000083F83D20FB68002283F83E20FB681B6C89
:1047100043F00402FB681A64FB68002283F83C2023
:10472000012367E07B68B3F1FF3F41D0FDF7BEFF97
:1047300002463B68D31A7A689A4202D37B68002B00
:1047400036D1BB681B0CDBB2012B0CD1FB681B689C
:104750005B69DA43BB6813409BB2002B14BF012393
:104760000023DBB20BE0FB681B689B69DA43BB6884
:1047700013409BB2002B14BF01230023DBB2002B9C
:1047800016D0FB6800221A63FB68202283F83D20C4
:10479000FB68002283F83E20FB681B6C43F020027C
:1047A000FB681A64FB68002283F83C20012321E0A7
:1047B000BB681B0CDBB2012B0CD1FB681B685B696F
:1047C000DA43BB6813409BB2002B14BF01230023C4
:1047D000DBB20BE0FB681B689B69DA43BB681340E4
:1047E0009BB2002B14BF01230023DBB2002B7FF40C
:1047F0006DAF002318461037BD4680BD80B584B02C
:1048000000AFF860B9607A6034E0F86800F0E3F86F
:104810000346002B01D0012334E0BB68B3F1FF3F16
:1048200028D0FDF743FF02467B68D31ABA689A4244
:1048300002D3BB68002B1DD1FB681B685B6903F0CA
:104840008003802B16D0FB6800221A63FB682022AD
:1048500083F83D20FB68002283F83E20FB681B6C38
:1048600043F02002FB681A64FB68002283F83C20B6
:10487000012307E0FB681B685B6903F08003802B62
:10488000C3D1002318461037BD4680BD80B584B023
:1048900000AFF860B9607A6034E0F86800F09BF827
:1048A0000346002B01D0012334E0BB68B3F1FF3F86
:1048B00028D0FDF7FBFE02467B68D31ABA689A42FD
:1048C00002D3BB68002B1DD1FB681B685B6903F03A
:1048D0000403042B16D0FB6800221A63FB68202215
:1048E00083F83D20FB68002283F83E20FB681B6CA8
:1048F00043F02002FB681A64FB68002283F83C2026
:10490000012307E0FB681B685B6903F00403042BC9
:10491000C3D1002318461037BD4680BD80B584B092
:1049200000AFF860B9607A6049E0FB681B685B69BA
:1049300003F01003102B19D1FB681B686FF01002F5
:104940005A61FB6800221A63FB68202283F83D202D
:10495000FB68002283F83E20FB681A6CFB681A642F
:10496000FB68002283F83C20012330E0FDF79EFE27
:1049700002467B68D31ABA689A4202D3BB68002BFE
:104980001DD1FB681B685B6903F04003402B16D008
:10499000FB6800221A63FB68202283F83D20FB6835
:1049A000002283F83E20FB681B6C43F02002FB686A
:1049B0001A64FB68002283F83C20012307E0FB68AF
:1049C0001B685B6903F04003402BAED100231846FF
:1049D0001037BD4680BD80B483B000AF78607B687F
:1049E0001B685B6903F48063B3F5806F1BD17B6840
:1049F0001B686FF480625A617B6800221A637B68CF
:104A0000202283F83D207B68002283F83E207B68CB
:104A10001B6C43F004027B681A647B68002283F8F5
:104A20003C20012300E0002318460C37BD4680BC23
:104A30007047000080B586B000AF78607B68002BBF
:104A400001D1012372E27B681B6803F00103002B94
:104A500000F08780924B5B6803F00C03042B0CD0B2
:104A60008F4B5B6803F00C03082B12D18C4B5B68F7
:104A700003F48033B3F5803F0BD1894B1B6803F4FB
:104A80000033002B6CD07B685B68002B68D101235E
:104A90004CE27B685B68B3F5803F06D1804B1B68B6
:104AA0007F4A43F4803313602EE07B685B68002B01
:104AB0000CD17B4B1B687A4A23F480331360784B0C
:104AC0001B68774A23F4802313601DE07B685B68D2
:104AD000B3F5A02F0CD1724B1B68714A43F48023AD
:104AE00013606F4B1B686E4A43F4803313600BE016
:104AF0006B4B1B686A4A23F480331360684B1B6856
:104B0000674A23F4802313607B685B68002B13D013
:104B1000FDF7CCFD386108E0FDF7C8FD02463B69B2
:104B2000D31A642B01D9032300E25D4B1B6803F405
:104B30000033002BF0D014E0FDF7B8FD386108E039
:104B4000FDF7B4FD02463B69D31A642B01D9032358
:104B5000ECE1534B1B6803F40033002BF0D100E071
:104B600000BF7B681B6803F00203002B63D04C4B33
:104B70005B6803F00C03002B0BD0494B5B6803F020
:104B80000C03082B1CD1464B5B6803F48033002BCD
:104B900016D1434B1B6803F00203002B05D07B6842
:104BA0001B69012B01D00123C0E13D4B1B6823F0A1
:104BB000F8027B685B69DB00394913430B603AE01C
:104BC0007B681B69002B20D0364B01221A60FDF751
:104BD0006DFD386108E0FDF769FD02463B69D31AB7
:104BE000022B01D90323A1E12D4B1B6803F0020323
:104BF000002BF0D02A4B1B6823F0F8027B685B691E
:104C0000DB00274913430B6015E0264B00221A6096
:104C1000FDF74CFD386108E0FDF748FD02463B69B1
:104C2000D31A022B01D9032380E11D4B1B6803F02B
:104C30000203002BF0D17B681B6803F00803002BF4
:104C40003AD07B689B69002B19D0174B01221A6060
:104C5000FDF72CFD386108E0FDF728FD02463B69B1
:104C6000D31A022B01D9032360E10D4B5B6A03F0D9
:104C70000203002BF0D0012000F0CEFA1CE00A4B1A
:104C800000221A60FDF712FD38610FE0FDF70EFDFE
:104C900002463B69D31A022B08D9032346E100BF21
:104CA000001002400000424280044242924B5B6A84
:104CB00003F00203002BE9D17B681B6803F00403B7
:104CC000002B00F0A6800023FB758B4BDB6903F003
:104CD0008053002B0DD1884BDB69874A43F080530A
:104CE000D361854BDB6903F08053BB60BB68012354
:104CF000FB75824B1B6803F48073002B18D17F4B2C
:104D00001B687E4A43F480731360FDF7CFFC386163
:104D100008E0FDF7CBFC02463B69D31A642B01D9AE
:104D2000032303E1754B1B6803F48073002BF0D061
:104D30007B68DB68012B06D16F4B1B6A6E4A43F020
:104D4000010313622DE07B68DB68002B0CD16A4BFA
:104D50001B6A694A23F001031362674B1B6A664AA8
:104D600023F0040313621CE07B68DB68052B0CD185
:104D7000614B1B6A604A43F0040313625E4B1B6A7B
:104D80005D4A43F0010313620BE05B4B1B6A5A4A16
:104D900023F001031362584B1B6A574A23F00403A4
:104DA00013627B68DB68002B15D0FDF77FFC386150
:104DB0000AE0FDF77BFC02463B69D31A41F28832D8
:104DC000934201D90323B1E04B4B1B6A03F002036A
:104DD000002BEED014E0FDF769FC38610AE0FDF726
:104DE00065FC02463B69D31A41F28832934201D9ED
:104DF00003239BE0404B1B6A03F00203002BEED120
:104E0000FB7D012B05D13C4BDB693B4A23F08053F2
:104E1000D3617B68DB69002B00F08780364B5B68D1
:104E200003F00C03082B61D07B68DB69022B46D1B1
:104E3000334B00221A60FDF739FC386108E0FDF7BA
:104E400035FC02463B69D31A022B01D903236DE0DE
:104E5000294B1B6803F00073002BF0D17B681B6AA1
:104E6000B3F5803F08D1244B5B6823F400327B68A4
:104E70009B68214913434B601F4B5B6823F47412FA
:104E80007B68196A7B685B6A0B431B4913434B6061
:104E90001B4B01221A60FDF709FC386108E0FDF7A1
:104EA00005FC02463B69D31A022B01D903233DE0DE
:104EB000114B1B6803F00073002BF0D035E0104B52
:104EC00000221A60FDF7F2FB386108E0FDF7EEFB07
:104ED00002463B69D31A022B01D9032326E0064B75
:104EE0001B6803F00073002BF0D11EE07B68DB69C8
:104EF000012B07D1012319E000100240007000408F
:104F0000600042420B4B5B68FB60FB6803F480323D
:104F10007B681B6A9A4206D1FB6803F470127B68B7
:104F20005B6A9A4201D0012300E00023184618373B
:104F3000BD4680BD0010024080B584B000AF7860EF
:104F400039607B68002B01D10123D0E06A4B1B68DC
:104F500003F007033A689A4210D9674B1B6823F0A5
:104F6000070265493B6813430B60634B1B6803F002
:104F700007033A689A4201D00123B8E07B681B68B6
:104F800003F00203002B20D07B681B6803F00403AE
:104F9000002B05D0594B5B68584A43F4E0635360DB
:104FA0007B681B6803F00803002B05D0534B5B683C
:104FB000524A43F460535360504B5B6823F0F00255
:104FC0007B689B684D4913434B607B681B6803F00B
:104FD0000103002B40D07B685B68012B07D1474B56
:104FE0001B6803F40033002B15D101237FE07B689D
:104FF0005B68022B07D1414B1B6803F00073002B49
:1050000009D1012373E03D4B1B6803F00203002B21
:1050100001D101236BE0394B5B6823F003027B680D
:105020005B68364913434B60FDF740FBF8600AE0CC
:10503000FDF73CFB0246FB68D31A41F288329342EB
:1050400001D9032353E02D4B5B6803F00C027B680E
:105050005B689B009A42EBD1274B1B6803F0070368
:105060003A689A4210D2244B1B6823F00702224967
:105070003B6813430B60204B1B6803F007033A683F
:105080009A4201D0012332E07B681B6803F00403DD
:10509000002B08D0194B5B6823F4E0627B68DB6867
:1050A000164913434B607B681B6803F00803002B11
:1050B00009D0124B5B6823F460527B681B69DB00EC
:1050C0000E4913434B6000F021F802460B4B5B681E
:1050D0001B0903F00F030A49CB5C22FA03F3094AC8
:1050E0001360094B1B681846FDF79EFA002318460B
:1050F0001037BD4680BD00BF0020024000100240B6
:10510000A8920008140000201800002080B487B086
:1051100000AF0023FB600023BB6000237B61002302
:105120007B6000233B611E4B5B68FB60FB6803F008
:105130000C03042B02D0082B03D027E0194B3B6152
:1051400027E0FB689B0C03F00F03174AD35C7B60DE
:10515000FB6803F48033002B10D0114B5B685B0CB1
:1051600003F00103114AD35CBB607B680D4A03FB6B
:1051700002F2BB68B2FBF3F37B6104E07B680C4A8C
:1051800002FB03F37B617B693B6102E0054B3B6102
:1051900000BF3B6918461C37BD4680BC704700BF46
:1051A0000010024000127A00C0920008D09200085D
:1051B00000093D0080B400AF024B1B681846BD4695
:1051C00080BC70471400002080B500AFFFF7F2FFED
:1051D0000246054B5B681B0A03F007030349CB5CDF
:1051E00022FA03F3184680BD00100240B89200086E
:1051F00080B500AFFFF7DEFF0246054B5B68DB0AB8
:1052000003F007030349CB5C22FA03F3184680BD81
:1052100000100240B892000880B485B000AF7860FA
:105220000A4B1B680A4AA2FB03235B0A7A6802FB4B
:1052300003F3FB6000BFFB685A1EFA60002BF9D134
:1052400000BF00BF1437BD4680BC7047140000206B
:10525000D34D621080B586B000AF786000233B610B
:105260000023FB607B681B6803F00103002B7DD0EB
:105270000023FB754F4BDB6903F08053002B0DD1EE
:105280004C4BDB694B4A43F08053D361494BDB699C
:1052900003F08053BB60BB680123FB75464B1B6862
:1052A00003F48073002B18D1434B1B68424A43F42C
:1052B00080731360FDF7FAF9386108E0FDF7F6F93D
:1052C00002463B69D31A642B01D903236DE03A4BA4
:1052D0001B6803F48073002BF0D0364B1B6A03F479
:1052E0004073FB60FB68002B2ED07B685B6803F487
:1052F0004073FA689A4227D02E4B1B6A23F44073FE
:10530000FB602E4B01221A602C4B00221A60294AA6
:10531000FB681362FB6803F00103002B14D0FDF758
:10532000C5F938610AE0FDF7C1F902463B69D31AB5
:1053300041F28832934201D9032336E01D4B1B6AA8
:1053400003F00203002BEED01A4B1B6A23F44072C9
:105350007B685B68174913430B62FB7D012B05D10A
:10536000144BDB69134A23F08053D3617B681B68BD
:1053700003F00203002B08D00E4B5B6823F440427D
:105380007B689B680B4913434B607B681B6803F089
:105390001003002B08D0074B5B6823F480027B6866
:1053A000DB68044913434B60002318461837BD4699
:1053B00080BD00BF00100240007000404004424227
:1053C00080B588B000AF786000237B610023FB616B
:1053D00000233B610023FB600023BB617B68102B33
:1053E0000AD07B68102B00F28A807B68012B45D0A5
:1053F0007B68022B75D082E0464B5B68FB60454BB7
:105400001B6803F08073002B7BD0FB689B0C03F0C0
:105410000F03414AD35C3B61FB6803F48033002BEC
:1054200015D03C4B5B685B0C03F001033B4AD35C3B
:105430007B61FB6803F48033002B0DD0384A7B6915
:10544000B2FBF3F23B6902FB03F3FB6104E03B694F
:10545000344A02FB03F3FB612E4B5B6803F48003C9
:10546000B3F5800F02D1FB69BB614AE0FB695B00C9
:105470002D4AA2FB03235B08BB6142E0254B1B6A5C
:10548000FB60FB6803F44073B3F5807F08D1FB68D1
:1054900003F00203002B03D04FF40043BB611FE075
:1054A000FB6803F44073B3F5007F09D1194B5B6AC5
:1054B00003F00203002B03D049F64043BB610FE029
:1054C000FB6803F44073B3F5407F1CD1114B1B689C
:1054D00003F40033002B16D04FF22443BB6112E0DB
:1054E00011E0FFF785FE02460A4B5B689B0B03F059
:1054F000030301335B00B2FBF3F3BB6104E000BFC5
:1055000002E000BF00E000BFBB6918462037BD467F
:1055100080BD00BF00100240D4920008E492000851
:1055200000127A0000093D00ABAAAAAA80B582B099
:1055300000AF78607B68002B01D1012341E07B68DC
:1055400093F83D30DBB2002B06D17B68002283F854
:105550003C207868FCF79EFE7B68022283F83D20A1
:105560007B681A687B6804331946104600F010FC0B
:105570007B68012283F846207B68012283F83E2065
:105580007B68012283F83F207B68012283F840205A
:105590007B68012283F841207B68012283F8422046
:1055A0007B68012283F843207B68012283F8442032
:1055B0007B68012283F845207B68012283F83D2027
:1055C000002318460837BD4680BD80B582B000AFC5
:1055D00078607B68002B01D1012341E07B6893F860
:1055E0003D30DBB2002B06D17B68002283F83C20E3
:1055F000786800F039F87B68022283F83D207B68E8
:105600001A687B6804331946104600F0C1FB7B68BA
:10561000012283F846207B68012283F83E207B68C4
:10562000012283F83F207B68012283F840207B68B9
:10563000012283F841207B68012283F842207B68A5
:10564000012283F843207B68012283F844207B6891
:10565000012283F845207B68012283F83D20002346
:1056600018460837BD4680BD80B483B000AF78606F
:1056700000BF0C37BD4680BC7047000080B584B0C9
:1056800000AF786039603B68002B09D17B6893F8E4
:105690003E30DBB2012B14BF01230023DBB222E03A
:1056A0003B68042B09D17B6893F83F30DBB2012BB8
:1056B00014BF01230023DBB215E03B68082B09D19E
:1056C0007B6893F84030DBB2012B14BF0123002329
:1056D000DBB208E07B6893F84130DBB2012B14BFEA
:1056E00001230023DBB2002B01D001235EE03B68E5
:1056F000002B04D17B68022283F83E2013E03B6834
:10570000042B04D17B68022283F83F200BE03B6826
:10571000082B04D17B68022283F8402003E07B68D9
:10572000022283F841207B681B68012239681846F1
:1057300000F04BFE7B681B681E4A934207D17B68D2
:105740001B685A6C7B681B6842F400425A647B6891
:105750001B68184A93420ED07B681B68B3F1804FD8
:1057600009D07B681B68144A934204D07B681B688D
:10577000124A934211D17B681B689B6803F00703B0
:10578000FB60FB68062B10D07B681B681A687B687F
:105790001B6842F001021A6007E07B681B681A6808
:1057A0007B681B6842F001021A600023184610371C
:1057B000BD4680BD002C01400004004000080040B0
:1057C00080B584B000AF78607B681B68DB68FB60E5
:1057D0007B681B681B69BB60BB6803F00203002B7E
:1057E00020D0FB6803F00203002B1BD07B681B68F2
:1057F0006FF002021A617B6801221A777B681B68CE
:105800009B6903F00303002B03D0786800F0A5FA2E
:1058100005E0786800F098FA786800F0A7FA7B68ED
:1058200000221A77BB6803F00403002B20D0FB682A
:1058300003F00403002B1BD07B681B686FF004028D
:105840001A617B6802221A777B681B689B6903F4E4
:105850004073002B03D0786800F07FFA05E0786889
:1058600000F072FA786800F081FA7B6800221A77FB
:10587000BB6803F00803002B20D0FB6803F008038B
:10588000002B1BD07B681B686FF008021A617B68D5
:1058900004221A777B681B68DB6903F00303002B83
:1058A00003D0786800F059FA05E0786800F04CFA07
:1058B000786800F05BFA7B6800221A77BB6803F017
:1058C0001003002B20D0FB6803F01003002B1BD02B
:1058D0007B681B686FF010021A617B6808221A77D8
:1058E0007B681B68DB6903F44073002B03D0786886
:1058F00000F033FA05E0786800F026FA786800F0E6
:1059000035FA7B6800221A77BB6803F00103002B8D
:105910000CD0FB6803F00103002B07D07B681B68E9
:105920006FF001021A61786800F005FABB6803F0B5
:105930008003002B0CD0FB6803F08003002B07D002
:105940007B681B686FF080021A61786800F01AFEAD
:10595000BB6803F04003002B0CD0FB6803F040034E
:10596000002B07D07B681B686FF040021A617868D3
:1059700000F005FABB6803F02003002B0CD0FB6895
:1059800003F02003002B07D07B681B686FF0200218
:105990001A61786800F0EDFD00BF1037BD4680BD8C
:1059A00080B586B000AFF860B9607A600023FB75FF
:1059B000FB6893F83C30012B01D10223AEE0FB6879
:1059C000012283F83C207B680C2B00F29F8001A20F
:1059D00052F823F0095A00080D5B00080D5B00081F
:1059E0000D5B0008495A00080D5B00080D5B0008BC
:1059F0000D5B00088B5A00080D5B00080D5B00086A
:105A00000D5B0008CB5A0008FB681B68B968184694
:105A100000F02CFAFB681B689A69FB681B6842F06F
:105A200008029A61FB681B689A69FB681B6822F090
:105A300004029A61FB681B689969BB681A69FB6874
:105A40001B680A439A6164E0FB681B68B9681846E2
:105A500000F072FAFB681B689A69FB681B6842F4E5
:105A600000629A61FB681B689A69FB681B6822F4F4
:105A700080629A61FB681B689969BB681B691A029E
:105A8000FB681B680A439A6143E0FB681B68B968BE
:105A9000184600F0BBFAFB681B68DA69FB681B68F4
:105AA00042F00802DA61FB681B68DA69FB681B6870
:105AB00022F00402DA61FB681B68D969BB681A69C5
:105AC000FB681B680A43DA6123E0FB681B68B9685E
:105AD000184600F005FBFB681B68DA69FB681B6869
