:020000040800F2
:100000000050002001450008ED420008F9420008B8
:1000100001430008094300081143000800000000E4
:10002000000000000000000000000000194300086C
:100030002543000800000000314300083D4300084C
:100040004945000849450008494500084945000858
:100050004945000849450008494500084945000848
:100060004945000849450008494500084945000838
:100070004945000849450008494500084945000828
:100080004945000849450008494500084945000818
:100090004945000849450008494500084945000808
:1000A00049450008494500084945000849450008F8
:1000B00049430008494500084945000849450008EA
:1000C00049450008494500084945000849450008D8
:1000D00049450008494500085D43000849450008B6
:1000E000494500084945000849450008000000004E
:1000F0000000000000000000000000000000000000
:0C01000000000000000000005FF808F1A3
:1001100010B5054C237833B9044B13B10448AFF341
:1001200000800123237010BDD801002000000000D2
:1001300068BA000808B5034B1BB103490348AFF385
:10014000008008BD00000000DC01002068BA000843
:10015000034613F8012B002AFBD1181A0138704707
:1001600081F0004102E000BF83F0004330B54FEA68
:1001700041044FEA430594EA050F08BF90EA020FD5
:100180001FBF54EA000C55EA020C7FEA645C7FEA68
:10019000655C00F0E2804FEA5454D4EB5555B8BF8B
:1001A0006D420CDD2C4480EA020281EA030382EAFC
:1001B000000083EA010180EA020281EA0303362D8E
:1001C00088BF30BD11F0004F4FEA01314FF4801C61
:1001D0004CEA113102D0404261EB410113F0004F73
:1001E0004FEA03334CEA133302D0524263EB43032A
:1001F00094EA050F00F0A780A4F10104D5F1200EC8
:100200000DDB02FA0EFC22FA05F2801841F1000122
:1002100003FA0EF2801843FA05F359410EE0A5F1F6
:1002200020050EF1200E012A03FA0EFC28BF4CF027
:10023000020C43FA05F3C01851EBE37101F00045DD
:1002400007D54FF0000EDCF1000C7EEB00006EEBEA
:100250000101B1F5801F1BD3B1F5001F0CD3490874
:100260005FEA30004FEA3C0C04F101044FEA4452CB
:1002700012F5800F80F09A80BCF1004F08BF5FEA52
:10028000500C50F1000041EB045141EA050130BD32
:100290005FEA4C0C404141EB0101013C28BFB1F544
:1002A000801FE9D291F0000F04BF01460020B1FA8F
:1002B00081F308BF2033A3F10B03B3F120020CDA62
:1002C0000C3208DD02F1140CC2F10C0201FA0CF040
:1002D00021FA02F10CE002F11402D8BFC2F1200CA5
:1002E00001FA02F120FA0CFCDCBF41EA0C0190405B
:1002F000E41AA2BF01EB0451294330BD6FEA0404A4
:100300001F3C1CDA0C340EDC04F11404C4F120028E
:1003100020FA04F001FA02F340EA030021FA04F3A0
:1003200045EA030130BDC4F10C04C4F1200220FAF7
:1003300002F001FA04F340EA0300294630BD21FA35
:1003400004F0294630BD94F0000F83F4801306BFFB
:1003500081F480110134013D4EE77FEA645C18BFEF
:100360007FEA655C29D094EA050F08BF90EA020F86
:1003700005D054EA000C04BF1946104630BD91EA7E
:10038000030F1EBF0021002030BD5FEA545C05D181
:100390004000494128BF41F0004130BD14F58004C0
:1003A0003CBF01F5801130BD01F0004545F0FE4134
:1003B00041F470014FF0000030BD7FEA645C1ABF69
:1003C000194610467FEA655C1CBF0B46024650EAA0
:1003D000013406BF52EA033591EA030F41F40021CC
:1003E00030BD00BF90F0000F04BF0021704730B552
:1003F0004FF4806404F132044FF000054FF0000127
:1004000050E700BF90F0000F04BF0021704730B5E7
:100410004FF4806404F1320410F0004548BF4042BC
:100420004FF000013EE700BF42004FEAE2014FEA11
:1004300031014FEA02701FBF12F07F4393F07F4FEC
:1004400081F06051704732F07F4208BF704793F0EF
:100450007F4F04BF41F40021704730B54FF4607402
:1004600001F0004521F000411CE700BF50EA010205
:1004700008BF704730B54FF000050AE050EA0102AE
:1004800008BF704730B511F0004502D5404261EB1E
:1004900041014FF4806404F132045FEA915C3FF45F
:1004A000D8AE4FF003025FEADC0C18BF03325FEAFC
:1004B000DC0C18BF033202EBDC02C2F1200300FAAD
:1004C00003FC20FA02F001FA03FE40EA0E0021FAD2
:1004D00002F11444BDE600BF70B54FF0FF0C4CF4C0
:1004E000E06C1CEA11541DBF1CEA135594EA0C0F72
:1004F00095EA0C0F00F0DEF82C4481EA030621EAAD
:100500004C5123EA4C5350EA013518BF52EA0335E7
:1005100041F4801143F4801338D0A0FB02CE4FF099
:100520000005E1FB02E506F00042E0FB03E54FF0C9
:100530000006E1FB03569CF0000F18BF4EF0010EC1
:10054000A4F1FF04B6F5007F64F5407404D25FEABD
:100550004E0E6D4146EB060642EAC62141EA555170
:100560004FEAC52040EA5E504FEACE2EB4F1FD0CB2
:1005700088BFBCF5E06F1ED8BEF1004F08BF5FEA30
:10058000500E50F1000041EB045170BD06F00046E2
:1005900046EA010140EA020081EA0301B4EB5C048F
:1005A000C2BFD4EB0C0541EA045170BD41F4801187
:1005B0004FF0000E013C00F3AB8014F1360FDEBFAC
:1005C000002001F0004170BDC4F10004203C35DA88
:1005D0000C341BDC04F11404C4F1200500FA05F30B
:1005E00020FA04F001FA05F240EA020001F00042AC
:1005F00021F0004110EBD37021FA04F642EB060122
:100600005EEA430E08BF20EAD37070BDC4F10C044B
:10061000C4F1200500FA04F320FA05F001FA04F20F
:1006200040EA020001F0004110EBD37041F10001FB
:100630005EEA430E08BF20EAD37070BDC4F1200506
:1006400000FA05F24EEA020E20FA04F301FA05F26E
:1006500043EA020321FA04F001F0004121FA04F216
:1006600020EA020000EBD3705EEA430E08BF20EAE6
:10067000D37070BD94F0000F0FD101F00046400020
:1006800041EB010111F4801F08BF013CF7D041EAA2
:10069000060195F0000F18BF704703F000465200A6
:1006A00043EB030313F4801F08BF013DF7D043EA77
:1006B0000603704794EA0C0F0CEA135518BF95EA2D
:1006C0000C0F0CD050EA410618BF52EA4306D1D1B4
:1006D00081EA030101F000414FF0000070BD50EAD3
:1006E000410606BF1046194652EA430619D094EA5D
:1006F0000C0F02D150EA013613D195EA0C0F05D147
:1007000052EA03361CBF104619460AD181EA03019A
:1007100001F0004141F0FE4141F470014FF0000052
:1007200070BD41F0FE4141F4780170BD70B54FF0ED
:10073000FF0C4CF4E06C1CEA11541DBF1CEA13556D
:1007400094EA0C0F95EA0C0F00F0A7F8A4EB05044F
:1007500081EA030E52EA03354FEA013100F0888046
:100760004FEA03334FF0805545EA131343EA12630F
:100770004FEA022245EA111545EA10654FEA0026C4
:100780000EF000419D4208BF964244F1FD0404F57D
:10079000407402D25B084FEA3202B61A65EB0305D9
:1007A0005B084FEA32024FF480104FF4002CB6EB96
:1007B000020E75EB030E22BFB61A754640EA0C0016
:1007C0005B084FEA3202B6EB020E75EB030E22BF56
:1007D000B61A754640EA5C005B084FEA3202B6EB97
:1007E000020E75EB030E22BFB61A754640EA9C0056
:1007F0005B084FEA3202B6EB020E75EB030E22BF26
:10080000B61A754640EADC0055EA060E18D04FEAE3
:10081000051545EA16754FEA06164FEAC30343EA83
:1008200052734FEAC2025FEA1C1CC0D111F4801F50
:100830000BD141EA00014FF000004FF0004CB6E749
:1008400011F4801F04BF01430020B4F1FD0C88BFE8
:10085000BCF5E06F3FF6AFAEB5EB030C04BFB6EBF3
:10086000020C5FEA500C50F1000041EB045170BDE6
:100870000EF0004E4EEA113114EB5C04C2BFD4EB13
:100880000C0541EA045170BD41F480114FF0000E97
:10089000013C90E645EA060E8DE60CEA135594EA13
:1008A0000C0F08BF95EA0C0F3FF43BAF94EA0C0F16
:1008B0000AD150EA01347FF434AF95EA0C0F7FF48B
:1008C00025AF104619462CE795EA0C0F06D152EADF
:1008D00003353FF4FDAE1046194622E750EA4106C3
:1008E00018BF52EA43067FF4C5AE50EA41047FF4D4
:1008F0000DAF52EA43057FF4EBAE12E74FF0FF3C39
:1009000006E000BF4FF0010C02E000BF4FF0010C09
:100910004DF804CD4FEA410C7FEA6C5C4FEA430C82
:1009200018BF7FEA6C5C1BD001B050EA410C0CBFD1
:1009300052EA430C91EA030F02BF90EA020F002033
:10094000704710F1000F91EA030F58BF994208BF9A
:1009500090422CBFD8176FEAE37040F00100704757
:100960004FEA410C7FEA6C5C02D150EA013C07D1AE
:100970004FEA430C7FEA6C5CD6D152EA033CD3D0F9
:100980005DF8040B704700BF8446104662468C46F3
:100990001946634600E000BF01B5FFF7B7FF002826
:1009A00048BF10F1000F01BD4DF808EDFFF7F4FF4F
:1009B0000CBF012000205DF808FB00BF4DF808EDDA
:1009C000FFF7EAFF34BF012000205DF808FB00BFFD
:1009D0004DF808EDFFF7E0FF94BF012000205DF81F
:1009E00008FB00BF4DF808EDFFF7CEFF94BF0120D4
:1009F00000205DF808FB00BF4DF808EDFFF7C4FFCD
:100A000034BF012000205DF808FB00BF4FEA410C15
:100A10007FEA6C5C02D150EA013C0AD14FEA430CF8
:100A20007FEA6C5C02D152EA033C02D14FF0000035
:100A300070474FF0010070474FEA410212F5001273
:100A400015D211D56FF47873B3EB625212D94FEA15
:100A5000C12343F0004343EA505311F0004F23FAFF
:100A600002F018BF404270474FF00000704750EA54
:100A7000013005D111F0004008BF6FF00040704711
:100A80004FF00000704700BF80F0004002E000BF60
:100A900081F0004142001FBF5FEA410392EA030F69
:100AA0007FEA226C7FEA236C6AD04FEA1262D2EBB3
:100AB0001363C1BFD218414048404140B8BF5B42B8
:100AC000192B88BF704710F0004F40F4000020F051
:100AD0007F4018BF404211F0004F41F4000121F067
:100AE0007F4118BF494292EA030F3FD0A2F10102B1
:100AF00041FA03FC10EB0C00C3F1200301FA03F1EF
:100B000000F0004302D5494260EB4000B0F5000F11
:100B100013D3B0F1807F06D340084FEA310102F1D0
:100B20000102FE2A51D2B1F1004F40EBC25008BF82
:100B300020F0010040EA03007047490040EB00004C
:100B4000013A28BFB0F5000FEDD2B0FA80FCACF14D
:100B5000080CB2EB0C0200FA0CF0AABF00EBC2507A
:100B600052421843BCBFD0401843704792F0000F68
:100B700081F4000106BF80F400000132013BB5E7BB
:100B80004FEA41037FEA226C18BF7FEA236C21D031
:100B900092EA030F04D092F0000F08BF0846704796
:100BA00090EA010F1CBF0020704712F07F4F04D164
:100BB000400028BF40F00040704712F100723CBF77
:100BC00000F50000704700F0004343F0FE4040F4A1
:100BD000000070477FEA226216BF08467FEA23635F
:100BE0000146420206BF5FEA412390EA010F40F44A
:100BF000800070474FF0000304E000BF10F0004396
:100C000048BF40425FEA000C08BF704743F096437C
:100C100001464FF000001CE050EA010208BF704797
:100C20004FF000030AE000BF50EA010208BF70471E
:100C300011F0004302D5404261EB41015FEA010C33
:100C400002BF84460146002043F0B64308BFA3F12B
:100C50008053A3F50003BCFA8CF2083AA3EBC2530D
:100C600010DB01FA02FC634400FA02FCC2F120022C
:100C7000BCF1004F20FA02F243EB020008BF20F063
:100C80000100704702F1200201FA02FCC2F12002C9
:100C900050EA4C0021FA02F243EB020008BF20EABE
:100CA000DC7070474FF0FF0C1CEAD0521EBF1CEAEC
:100CB000D15392EA0C0F93EA0C0F6FD01A4480EADA
:100CC000010C400218BF5FEA41211ED04FF00063C3
:100CD00043EA501043EA5111A0FB01310CF00040EF
:100CE000B1F5000F3EBF490041EAD3715B0040EA15
:100CF000010062F17F02FD2A1DD8B3F1004F40EBE5
:100D0000C25008BF20F00100704790F0000F0CF0B7
:100D1000004C08BF49024CEA502040EA51207F3A7B
:100D2000C2BFD2F1FF0340EAC250704740F4000056
:100D30004FF00003013A5DDC12F1190FDCBF00F047
:100D400000407047C2F10002410021FA02F1C2F1F5
:100D5000200200FA02FC5FEA310040F1000053EA91
:100D60004C0308BF20EADC70704792F0000F00F0DF
:100D7000004C02BF400010F4000F013AF9D040EAE5
:100D80000C0093F0000F01F0004C02BF490011F479
:100D9000000F013BF9D041EA0C018FE70CEAD15377
:100DA00092EA0C0F18BF93EA0C0F0AD030F0004CF7
:100DB00018BF31F0004CD8D180EA010000F00040AB
:100DC000704790F0000F17BF90F0004F084691F069
:100DD000000F91F0004F14D092EA0C0F01D14202A3
:100DE0000FD193EA0C0F03D14B0218BF084608D16C
:100DF00080EA010000F0004040F0FE4040F40000B6
:100E0000704740F0FE4040F4400070474FF0FF0C48
:100E10001CEAD0521EBF1CEAD15392EA0C0F93EA8F
:100E20000C0F69D0A2EB030280EA010C49024FEAE1
:100E3000402037D04FF0805343EA111143EA10139A
:100E40000CF000408B4238BF5B0042F17D024FF452
:100E5000000C8B4224BF5B1A40EA0C00B3EB510F2D
:100E600024BFA3EB510340EA5C00B3EB910F24BF16
:100E7000A3EB910340EA9C00B3EBD10F24BFA3EB9B
:100E8000D10340EADC001B0118BF5FEA1C1CE0D163
:100E9000FD2A3FF650AF8B4240EBC25008BF20F016
:100EA000010070470CF0004C4CEA50207F32C2BF6A
:100EB000D2F1FF0340EAC250704740F400004FF007
:100EC0000003013A37E792F0000F00F0004C02BF38
:100ED000400010F4000F013AF9D040EA0C0093F002
:100EE000000F01F0004C02BF490011F4000F013B5C
:100EF000F9D041EA0C0195E70CEAD15392EA0C0FC4
:100F000008D142027FF47DAF93EA0C0F7FF470AFFB
:100F1000084676E793EA0C0F04D14B023FF44CAF3E
:100F200008466EE730F0004C18BF31F0004CCAD1D3
:100F300030F000427FF45CAF31F000437FF43CAF0F
:100F40005FE700BF4FF0FF3C06E000BF4FF0010C31
:100F500002E000BF4FF0010C4DF804CD4FEA400213
:100F60004FEA41037FEA226C18BF7FEA236C11D05D
:100F700001B052EA530C18BF90EA010F58BFB2EB10
:100F8000030088BFC81738BF6FEAE17018BF40F090
:100F9000010070477FEA226C02D15FEA402C05D144
:100FA0007FEA236CE4D15FEA412CE1D05DF8040BC9
:100FB000704700BF844608466146FFE70FB5FFF75C
:100FC000C9FF002848BF10F1000F0FBD4DF808ED14
:100FD000FFF7F4FF0CBF012000205DF808FB00BF05
:100FE0004DF808EDFFF7EAFF34BF012000205DF85F
:100FF00008FB00BF4DF808EDFFF7E0FF94BF0120AC
:1010000000205DF808FB00BF4DF808EDFFF7D2FFA8
:1010100094BF012000205DF808FB00BF4DF808EDEB
:10102000FFF7C8FF34BF012000205DF808FB00BFB8
:101030004FEA4002B2F1FE4F0FD34FF09E03B3EBE5
:1010400012620DD94FEA002343F0004310F0004F25
:1010500023FA02F018BF404270474FF0000070477B
:1010600012F1610F01D1420205D110F0004008BF1A
:101070006FF0004070474FF00000704742000ED202
:10108000B2F1FE4F0BD34FF09E03B3EB126209D4C3
:101090004FEA002343F0004323FA02F070474FF079
:1010A0000000704712F1610F01D1420202D14FF0EE
:1010B000FF3070474FF00000704700BF80B584B02C
:1010C00000AFF860B9607A60B968F868FFF788FF28
:1010D0000346002B01D0BB6809E07968F868FFF788
:1010E0009DFF0346002B01D07B6800E0FB6818469B
:1010F0001037BD4680BD000080B582B000AF78607B
:101100000D497868FFF7CEFD03460C4A4FF0000109
:101110001846FFF7D3FF78604FF07C517868FFF7EF
:10112000B9FC03461846FFF7A9FF03469BB21846D1
:101130000837BD4680BD00BF00007A4400FF7F47EE
:1011400080B582B000AF786017497868FFF7AAFDD4
:101150000346164A4FF047411846FFF7AFFF786045
:101160004FF000017868FFF74FFF0346002B0BD0CC
:101170004FF07C517868FFF78DFC03461846FFF767
:1011800057FF03461BB20AE04FF07C517868FFF727
:101190007FFC03461846FFF74BFF03461BB2184679
:1011A0000837BD4680BD00BF00007A4400FEFF4600
:1011B00090B585B000AF78603B4B19467868FFF773
:1011C00023FF0346002B01D0384B69E0384B19460A
:1011D0007868FFF70FFF0346002B02D04FF00003A3
:1011E0005EE00023FB7356E0FB7B324A52F823306B
:1011F00019467868FFF7FEFE0346002B48D0FB7BBC
:1012000001332C4A52F8233019467868FFF7FCFE68
:101210000346002B3CD0FB7B0133264A52F8233097
:1012200019467868FFF734FC03461C46FB7B214ACD
:1012300052F82320FB7B01331E4951F82330194615
:101240001046FFF725FC034619462046FFF7DEFD52
:101250000346BB60FB7B0133174A52F82340FB7BFC
:10126000154A52F82320FB7B0133134951F82330F0
:1012700019461046FFF70CFC0346B9681846FFF7FD
:1012800011FD034619462046FFF704FC034607E01C
:10129000FB7B0133FB73FB7B112BA5D94FF00003C4
:1012A00018461437BD4690BD713D6A410000C842E2
:1012B00000002041CCBB000818BC000880B586B0F7
:1012C00000AF7860396007F10C0300221A605A60A1
:1012D0009A607B68FB6001233B6107237B6107F118
:1012E0000C031946144803F07BFC0346002B01D085
:1012F00000231DE0104803F087FA0346002B01D0BD
:10130000002315E005210C4803F058FB0346002B91
:1013100004D0094803F026FB002309E0064803F047
:1013200053FC02463B681A60034803F01BFB012391
:1013300018461837BD4680BDC403002090B59FB045
:1013400000AF786039607B68002B02D03B68002BCF
:1013500001D1002393E1002387F877302EE00023AA
:10136000BB6007F1080319460620FFF7A7FF0346F5
:1013700083F00103DBB2002B03D1BB68B3F5805FC0
:1013800006D39D4B1B6801339B4A1360002376E113
:10139000BA6897F8773092B25B0078333B4423F811
:1013A0006C2C97F8773001331F2B02D8012003F003
:1013B0002FF997F87730013387F8773097F877303F
:1013C0001F2BCCD9012387F8763040E097F8763090
:1013D0005B0078333B4433F86C3CA7F84E3097F809
:1013E000763087F8753014E097F87530013B97F840
:1013F00075205B0078333B4433F86C1C5300783322
:101400003B440A4623F86C2C97F87530013B87F86B
:10141000753097F87530002B0BD097F87530013B7D
:101420005B0078333B4433F86C3CB7F84E209A426B
:10143000DAD397F875305B0078333B44B7F84E2029
:1014400023F86C2C97F87630013387F8763097F8CC
:1014500076301F2BBAD9BA89684B1A80B7F84A2060
:10146000674B1A807B8A012B05D9B7F8443040F6C8
:10147000FD72934206D9604B1B6801335E4A1360CC
:101480000023FCE000233B67032387F86F300FE065
:1014900097F86F305B0078333B4433F86C3C1A4666
:1014A0003B6F13443B6797F86F30013387F86F3019
:1014B00097F86F301C2BEBD9386FFFF79BFB034677
:1014C00050491846FFF7A2FC0346BB664FF07C511B
:1014D000B86EFFF7DFFA03461846FFF7CFFD034665
:1014E0009AB2494B1A80494B49491846FFF78EFC7E
:1014F00003461946B86EFFF7D5FB03467B664FF0EF
:101500007E53796E1846FFF7CDFB03461A46414BD2
:1015100019461046FFF7BEFA03463B663E4B194696
:10152000386EFFF7B5FA03461A463C4B194610468B
:10153000FFF76CFC03461A46394B19461046FFF775
:10154000A7FA0346FB6501231C463649F86DFFF7F1
:1015500065FD0346002B01D100231C46E3B283F056
:101560000103DBB2002B10D101231C462E49F86D7C
:10157000FFF736FD0346002B01D100231C46E3B2E2
:1015800083F00103DBB2002B06D01B4B1B68013339
:10159000194A1360002372E0244AFB6D1360244B48
:1015A0001B7883F00103DBB2002B06D0214AFB6DD0
:1015B00013601F4B01221A7055E01E4B1B68194621
:1015C000F86DFFF765FA0346BB654FF00001B86D93
:1015D000FFF706FD0346002B03D0BB6D83F00043ED
:1015E00000E0BB6D7B651449786DFFF70DFD034688
:1015F000002B25D0114B25E0AC0200209E020020DC
:10160000A00200200000D0419C0200203333534050
:1016100000F07F45FED4F83D00002040CDCCCC3D0D
:10162000448B6C3F0000F0C10000F041A402002098
:1016300014020020100200209A99993E6666263F07
:101640004FF07A533B65B96D386DFFF72BFB0346BE
:101650001A460D4B1B6819461046FFF71BFA034646
:101660001A46094B1A60084B1B68084A1360064B60
:101670001A687B681A603B68FA6D1A600123184685
:101680007C37BD4690BD00BF10020020A80200209C
:1016900080B483B000AF03460A46FB711346BB71AA
:1016A000084AFB791370084ABB791370074B1B6813
:1016B0000133064A1360002318460C37BD4680BC30
:1016C000704700BF0000002060020020640200207C
:1016D00080B58CB004AF03463960FB71FB79032BF6
:1016E00002D83B68002B06D1FB7902211846FFF790
:1016F000CFFF0346B1E0FB799BB204339BB21B03DF
:101700009AB2584B1343BB8301233B74BB8B1B0A18
:101710009BB2DBB27B74BB8BDBB2BB7407F11002F4
:101720000F230093032394214F4804F04BFA034600
:10173000002B06D0FB7901211846FFF7A9FF0346CD
:101740008BE002F05BFFB8610023FB770F2302936D
:101750000223019307F1080300930123012294213E
:10176000414804F02DFB0346002B06D0FB790221F3
:101770001846FFF78DFF03466FE03B7A1B021AB253
:101780007B7A1BB213431BB2FB82FA8ABB8B53409A
:101790009BB203F4FC43002B06D0FB7902211846D0
:1017A000FFF776FF034658E0B7F91630002B02DA50
:1017B0000123FB7709E0012002F02AFF02F01EFF5F
:1017C0000246BB69D31A112BC0D9FB7F83F00103FA
:1017D000DBB2002B06D0FB7903211846FFF758FF38
:1017E00003463AE00F2302930223019307F10C030F
:1017F00000930123002294211B4804F0E1FA0346E0
:10180000002B06D0FB7904211846FFF741FF034661
:1018100023E03B7B1B021AB27B7B1BB213431AB241
:101820003B681A803B68B3F90030002B0DDB3B6846
:10183000B3F9003047F6F772934206DC3B68B3F920
:1018400000309BB2B3F5CD4F06D3FB790521184686
:10185000FFF71EFF034600E0012318462037BD4670
:1018600080BD00BF8383FFFFF403002090B58FB0DD
:1018700000AF7860002387F837302BE0002387F82B
:1018800036301EE097F8362097F8370007F1080148
:1018900013465B00134403445B00CA1897F83630C4
:1018A00011461846FFF714FF034683F00103DBB22D
:1018B000002B01D00023EDE097F83630013387F894
:1018C000363097F83630032BDCD997F837300133B0
:1018D00087F8373097F83730022BCFD9002387F8B5
:1018E0003530CBE097F8352013465B0013445B009E
:1018F00038333B44303B1B887B8697F835201346B2
:101900005B0013445B0038333B442E3B1B883B8613
:1019100097F8352013465B0013445B0038333B4493
:101920002C3B1B88FB85B7F93220B7F930309A423F
:1019300005DD7B8EBB853B8E7B86BB8D3B86B7F9F9
:101940003020B7F92E309A4205DD3B8E7B85FB8D2A
:101950003B867B8DFB85B7F93220B7F930309A4250
:1019600005DD7B8E3B853B8E7B863B8D3B864FF436
:101970008C73FB843A8E7B8ED31A9BB2FA8C9A427C
:101980000ED2FA8D3B8ED31A9BB2FA8C9A4207D2B2
:1019900097F8353006211846FFF77AFE034679E0BE
:1019A000B7F93020B7F93230D21AB7F92E10B7F99B
:1019B0003030CB1A9A4204DA3A8E7B8ED31A9BB21D
:1019C00003E0FA8D3B8ED31A9BB2BB84BB8C0433ED
:1019D000DA0897F8353091B2304A22F8131097F8A8
:1019E00035302F493A8E21F81320B7F93030184698
:1019F000FFF704F903462B491846FFF753F903464E
:101A00003B6297F83530284A52F82330396A184635
:101A1000FFF748F90346184697F83530234A52F83D
:101A200023301946FFF73EF90346184697F835303C
:101A30001F4A52F823301946FFF734F90346184677
:101A400097F835301B4A52F8231097F835309B0031
:101A50007A68D418FFF71EF80346236097F83530EC
:101A60009B007A681A4497F835301268124941F899
:101A7000232097F83530013387F8353097F8353023
:101A8000032B7FF62FAF0D4B00221A700C4BFF2259
:101A90001A70012318463C37BD4690BD74020020E1
:101AA0006C0200206F1203398CBB00089CBB00083D
:101AB000ACBB0008BCBB00087C0200206002002018
:101AC0000000002080B584B000AF0346FB804FF6D5
:101AD000E073FB81FA88FB891340BB81B7F90C30B6
:101AE000002B03DABB89A3F5803300E0BB89BB6020
:101AF000B868FFF783F803464FF06E511846FFF7BA
:101B0000D1F8034618461037BD4680BD80B588B071
:101B100000AFF860B9607A60B968F868FFF77EFADC
:101B20000346002B05D0FB68FB61BB68FB60FB69CB
:101B3000BB607968B868FFF771FA0346002B05D0DF
:101B4000BB68BB617B68BB60BB697B60B968F868D8
:101B5000FFF764FA0346002B05D0FB687B61BB6886
:101B6000FB607B69BB60BB6818462037BD4680BD03
:101B700080B400AF0A4B00221A700A4B00221A7080
:101B8000094B00221A70094B00221A70084B1B687F
:101B90000133074A136000BFBD4680BC704700BFD9
:101BA00034020020350200203C0200204F020020B9
:101BB0005C02002080B582B000AF0346FB710E4A84
:101BC000FB7913700D4B1B6801330C4A13600C4BEF
:101BD0001B78002B0AD002F011FD0246094B1B684E
:101BE000D31AB3F57A7F01D3FFF7C2FF002318465B
:101BF0000837BD4680BD00BF4E02002054020020C1
:101C00003C0200205802002090B593B004AF7860E9
:101C10007B68002B04D10120FFF7CCFF03469DE138
:101C200000233B820023FB73012387F83730002316
:101C300087F83630002387F8353038E00F230293D9
:101C40000223019307F11003009301230022902146
:101C5000A34804F0B5F80346002B03D0012387F80E
:101C6000373017E00F2302930123019307F10F038D
:101C70000093012301229021994804F0A1F8034622
:101C8000002B03D0022387F8373003E0012387F8C5
:101C9000363010E097F835300133012B02D802209E
:101CA00002F0B6FC97F83530013387F8353097F8F5
:101CB0003530012BC2D997F8363083F00103DBB2FF
:101CC000002B06D097F837301846FFF773FF03460E
:101CD00044E1FB7B03F00103002B04D00320FFF75A
:101CE00069FF03463AE13B7C1B021AB27B7C1BB2C4
:101CF00013431BB2FB85FB8D1846FFF7E3FEB8626A
:101D000001231C467749B86AFFF77EF90346002B8A
:101D100001D100231C46E3B283F00103DBB2002BA8
:101D200010D101231C467049B86AFFF763F90346D6
:101D3000002B01D100231C46E3B283F00103DBB288
:101D4000002B04D00420FFF735FF034606E14FF0D7
:101D50000001B86AFEF79EFE03467B6201231C4623
:101D60006049786AFFF750F90346002B01D1002340
:101D70001C46E3B283F00103DBB2002B10D1012338
:101D80001C465949786AFFF735F90346002B01D103
:101D900000231C46E3B283F00103DBB2002B04D026
:101DA0000420FFF707FF0346D8E002F027FC386263
:101DB0004E4B1B78002B08D04D4B1B683A6AD31A48
:101DC000B3F57A7F01D3FFF7D3FE4A4AFB8D138028
:101DD000494A7B6A1360464A3B6A1360474B1B685B
:101DE0000133464A1360464B00221A70454B1B785C
:101DF0001946454A7B6A42F82130424B1B78591CF0
:101E0000424BA3FB01235A0813465B001344CA1A32
:101E1000D2B23C4B1A703E4B1B78022B05D83C4B80
:101E20001B780133DAB23A4B1A70394B1A78394BB6
:101E30001A707B6A3B63364B1B78022B10D1324BF6
:101E40001B68314A526811461846FEF723FE0346C6
:101E50004FF07C511846FEF725FF03463B630DE02B
:101E60002B4B1B78032B09D1274B1B68264A516843
:101E7000254A92681846FFF749FE3863264A3B6BAD
:101E800013601A4B1B7883F00103DBB2002B06D0E2
:101E9000224A3B6B1360154B01221A7055E01F4B11
:101EA0001B681946386BFEF7F3FD0346FB614FF0E4
:101EB0000001F869FFF794F80346002B03D0FB6993
:101EC00083F0004300E0FB69BB614FF08041B869DB
:101ED000FFF79AF80346002B24D0114B24E000BFF3
:101EE000F403002000005CC20000FA423C02002023
:101EF000580200204C020020400200205002002026
:101F00004E0200203502002028020020ABAAAAAA17
:101F1000340200204F02002044020020380200203A
:101F20003333333F4FF07A537B61F9697869FEF7B9
:101F3000B9FE03461A460B4B1B6819461046FEF7BE
:101F4000A9FD03461A46074B1A60064B1B68064A52
:101F50001360044B1A687B681A60012318463C37EB
:101F6000BD4690BD380200204802002080B582B0F6
:101F700000AF0346FB71FB79002B01D0012200E08A
:101F800000220B4B1A70FB791A468021094803F096
:101F90008CFCFB7983F00103DBB21A464FF400514D
:101FA000054803F082FC00BF0837BD4680BD00BF76
:101FB000F4010020000801400010014080B500AF8E
:101FC000034B01221A700020FFF7D0FF00BF80BD35
:101FD000F501002080B500AF124B1B680133114A98
:101FE0001360114B1B78DBB2002B03D00020FFF7EE
:101FF000BDFF15E00D4B1B78DBB2002B07D10C4B5E
:102000001B78DBB283F00103DBB2002B05D0094B58
:102010001B680133074A136002E00120FFF7A6FFA7
:1020200080BD00BFD0020020F4010020F501002097
:10203000F6010020D4020020B0B598B000AF78605F
:1020400007F1380300221A605A609A60DA601A6158
:102050005A614FF000037B614FF000033B614FF08A
:102060000003FB6007F128031846FFF7FFFB034658
:1020700087F85F3007F1100207F114031146184684
:10208000FFF75CF9034687F85A3007F10C0318464E
:10209000FFF7BAFD034687F8593097F85F30002BF9
:1020A00076D0BB6ABB61FB6ABA6A11461846FEF776
:1020B000EFFC0346FB613B6BFA6A11461846FEF7DC
:1020C000E7FC03463B627B6B3A6B11461846FEF712
:1020D000DFFC03467B627B6B8C491846FEF780FF72
:1020E0000346002B07D17B6B89491846FEF796FF04
:1020F0000346002B02D0002387F85F30002387F8C7
:102100005E3030E097F85E3097F85E209B006033D9
:102110003B4453F8483C7F4941F8223097F85E3001
:102120009B0060333B4453F8483C4FF07F511846C6
:10213000FEF756FF0346002B0DD197F85E309B004B
:1021400060333B4453F8483C73491846FEF766FF3A
:102150000346002B02D0002387F85F3097F85E30EB
:10216000013387F85E3097F85E30032BCAD997F8B1
:102170005F3083F00103DBB2002B04D00721FF2086
:10218000FFF786FA04E0654B1B680133634A13606E
:1021900097F85F30002B05D097F85A30002B01D00C
:1021A000012300E0002303F00103DAB25C4B1A7054
:1021B0005B4B1B78DBB283F00103DBB2002B01D059
:1021C000FFF7FCFE97F85F30002B00F0F480554BD2
:1021D0001B7883F00103DBB2002B1CD0002387F8AF
:1021E0005D3010E097F85D3097F85D209B0060331C
:1021F0003B4453F8383C4C4941F8223097F85D3065
:10220000013387F85D3097F85D30032BEAD9454BF1
:1022100001221A7034E0002387F85C302CE097F834
:102220005C30414A52F8235097F85C309B00603391
:102230003B4453F8382C97F85C303B4951F8233035
:1022400019461046FEF724FC03461A46374B19463A
:102250001046FEF727FD034697F85C4019462846CE
:10226000FEF718FC03461A462F4B43F8242097F834
:102270005C30013387F85C3097F85C30032BCED9A3
:10228000294B1B682A4A1360274B5B68264A126851
:1022900011461846FEF7FCFB03461A46254B1A600A
:1022A000214B9B68204A526811461846FEF7F0FB06
:1022B00003461A46204B1A601B4BDB681A4A926889
:1022C00011461846FEF7E4FB03461A461B4B1A60FC
:1022D000154BDB681A4A1360002387F85B3045E032
:1022E00097F85B30002B2DD097F85B30012B09D08D
:1022F00097F85B30022B02D10F4B1B6824E00F4B89
:102300001B6821E00B4B1B681EE000BF0000E04093
:10231000000090418C0200200000904068020020E4
:10232000F60100201502002018020020CDCC4C3E02
:10233000F8010020FC01002000020020040200201F
:10234000080200209F4B1B687B6597F85B40786D07
:10235000FEF7D2FE03461A46630060333B4423F87F
:10236000282C97F85B30013387F85B3097F85B30A7
:10237000032BB5D9944B1B681846FEF7BDFE0346E8
:10238000A7F8403097F8493043F00103DBB287F8F3
:1023900049307B6B8D491846FEF740FE0346002B03
:1023A00007D17B6B8A491846FEF71AFE0346002BBD
:1023B00001D0FFF703FE97F85A30002B11D07B694C
:1023C000844A1360834B1B681846FEF7B9FE034628
:1023D000A7F8423097F8493043F00803DBB287F89A
:1023E000493097F85930002B34D0FB684FF000018A
:1023F0001846FEF709FE0346002B11D0FB6876490C
:102400001846FEF74FFC03464FF07C511846FEF786
:1024100041FB03461846FEF70BFE03461BB210E0D5
:10242000FB686D491846FEF73DFC03464FF07C51B2
:102430001846FEF72DFB03461846FEF7F9FD034646
:102440001BB2A7F8463097F8493043F00203DBB2DD
:1024500087F8493097F85F30002B00F0928097F8AA
:102460005A30002B00F08D805C4B1B7883F0010309
:10247000DBB2002B13D07B6842F20F7293420ED96D
:10248000514B1B681846FEF793FE0346544A1360EF
:10249000524B01221A70534A7B6813603BE04F4B4A
:1024A0001B78002B37D04F4B1B687A68D31A3B65DB
:1024B0004C4A7B6813604A4B1C68386DFEF79AFBE8
:1024C00002463B6919461046FEF7ECFB03461D46E3
:1024D000454B46491846FEF7E5FB03461946284694
:1024E000FEF794FC03463C491846FEF7DBFB034627
:1024F00019462046FEF7CCFA03461A46384B1A60B6
:10250000374B1B68344A4FF000011846FEF7D6FDE2
:102510000346334A13607B6B2C491846FEF77EFD59
:102520000346002B02D02E4B2B4A1A607B6B2849A6
:102530001846FEF755FD0346002B03D0284B4FF0FD
:1025400000021A60254B1B78002B1AD0244B1B6805
:1025500021491846FEF7A6FB03464FF07C5118466A
:10256000FEF798FA03461846FEF788FD03469BB22D
:10257000A7F8443097F8493043F00403DBB287F8FA
:1025800049301B4B1B78DBB287F84830194B1B785E
:10259000DBB2002B06D097F8493043F01003DBB2D2
:1025A00087F849307B68FB64134B1D4607F13804FC
:1025B0000FCC0FC594E8030085E8030000BF603727
:1025C000BD46B0BDF801002008020020CDCC684116
:1025D000CDCC1441100200200000C842B0020020FF
:1025E0000C020020B40200200000704100BA5B4AD7
:1025F000F4010020F5010020B802002080B500AFF2
:102600000020FFF7B3FC00F0BFF8164B00221A6061
:10261000154B00221A60002000F0EAF903461A4622
:10262000124B1A70124802F06FFC0346002B01D0C7
:1026300001F012FD01F0E2FF0346184600F05AFFD8
:102640000C4801F029F90346002B01D001F004FDEC
:10265000094805F0E9F80346002B01D001F0FCFC25
:1026600000BF80BDD0020020D40200200100002065
:10267000C4030020900400204804002080B582B0EC
:1026800000AF01F0BBFF7860264B1B7883F001039D
:10269000DBB2002B06D07B68FA3B234A1360214B48
:1026A00001221A70204B1B687A68D31AF92B05D9BE
:1026B0001D4A7B6813607868FFF7BEFC002000F0BD
:1026C00097F903461A46194B1A7001E0FFF782FC8E
:1026D000002000F05BF90346002BF7D1144B1B7868
:1026E000DAB2144B1A74144B1B78DBB2002B06D0F1
:1026F000104B5B7C43F01003DAB20E4B5A7401F0BE
:102700007DFF034619460B4801F09EF901F076FF64
:10271000034601221946074800F05CFF00BF083756
:10272000BD4680BDD8020020DC0200200100002050
:10273000F4010020B8020020F501002080B582B02D
:1027400000AF78607B681B68B3F1804F01D100F067
:1027500085F800BF0837BD4680BD80B582B000AFA8
:102760007860786801F0BAF800BF0837BD4680BDD0
:1027700080B582B000AF7860786801F03DF900BFA5
:102780000837BD4680BD000080B582B000AF002391
:10279000FB714EE0FA7913465B0013449B00294A13
:1027A00013443B600123BB713B681B7A002B11D0A3
:1027B0003B681B68002B0DD03B689B88002B09D021
:1027C0003B681A683B689B881946104603F056F828
:1027D0000346BB71FA791C4913465B0013440B4452
:1027E000BA791A70FA79184913465B0013440B44FE
:1027F0000133BA791A70FA79134913465B0013440E
:102800000B44023300221A70FB791049BA79CA547A
:10281000FB790F4A002142F82310FB790D4A002171
:1028200042F82310FB790C4A0021D154FB79013383
:10283000FB71FB79032BADD900BF00BF0837BD4644
:1028400080BD00BF64BC0008E0020020100300202F
:10285000EC020020FC0200200C03002080B584B0B4
:1028600000AF0023FB737CE0FA7B13465B0013444C
:102870009B00404A1344BB60FA7B13465B00134441
:102880003D4A13447B60BB681B7A83F00103DBB2D3
:10289000002B60D1BB681B68002B5CD0BB689B8899
:1028A000002B58D0BB681A68BB689B881946104635
:1028B00002F0E4FF0346FB707B681B78FA789A42CB
:1028C00006D07B68FA781A707B6800229A7045E01F
:1028D0007B689A78BB68DB799A4205D27B689B78E3
:1028E0000133DAB27B689A707B689A78BB68DB79CF
:1028F0009A4232D37B685B78FA789A422DD07B6813
:10290000FA785A70FB7B1D49FA78CA54BB689B79E8
:10291000FA789A4222D1FB7B194A52F823200132DD
:10292000174941F82320FB7B164AD35CDBB2FF2B0F
:1029300008D0FB7B134AD25CD2B20132D1B2114A29
:10294000D1540BE0FB7B104A52F8232001320E4990
:1029500041F8232002E000BF00E000BFFB7B013311
:10296000FB73FB7B032B7FF67FAF00BF00BF1037ED
:10297000BD4680BD64BC0008E002002010030020BA
:10298000EC0200200C030020FC02002080B487B081
:1029900000AF0346FB71FB79032B01D9002320E034
:1029A000EFF31083FB60FB687B6172B600BFFB79BD
:1029B0000E4AD35CDBB2002B14BF01230023FB744F
:1029C000FB7C002B07D0FB79084AD25CD2B2013ADB
:1029D000D1B2064AD1547B69002B01D162B600BF47
:1029E000FB7C18461C37BD4680BC70470C0300209A
:1029F00080B483B000AF0346FB71FB79032B01D990
:102A0000012303E0FB79044AD35CDBB218460C37A0
:102A1000BD4680BC704700BF1003002080B500AFEA
:102A20005022FF21024806F04CFF00BF80BD00BFCE
:102A30001803002080B500AF052301224E21054870
:102A400003F032FC0346002B0CBF01230023DBB252
:102A5000184680BDF403002080B500AF124803F093
:102A600081F8124B1B69114A43F4001313610120D2
:102A700001F0CEFD0D4B1B690C4A23F400131361CA
:102A8000012001F0C5FD084802F028FF0346002B95
:102A900001D0002305E0064B1B680133044A136094
:102AA0000123184680BD00BFF4030020001002403F
:102AB0008C03002080B582B000AF7860074B002205
:102AC0001A70074B00221A70064A7B681360FFF7E2
:102AD000A5FF00BF0837BD4680BD00BF140300201E
:102AE000800300207403002080B582B000AF7860BE
:102AF0000B46FB70FFF79EFF034683F00103DBB23A
:102B0000002B2CD0354B1B680133344A1360344BF7
:102B10001B78FF2B05D0324B1B780133DAB2304BD8
:102B20001A702F4B1B78012B14D9FFF795FF034622
:102B300083F00103DBB2002B07D1FFF77BFF0346D5
:102B400083F00103DBB2002B09D07868FFF7B2FFF6
:102B500000233EE07868FFF7ADFF002339E001F085
:102B600085F800F0A1F8FFF765FF034683F0010345
:102B7000DBB2002B13D0194B1B680133174A1360CB
:102B8000174B1B78FF2B05D0154B1B780133DAB29E
:102B9000134B1A707868FFF78DFF002319E0114B73
:102BA00001221A70104B01221A700D4B00221A706C
:102BB0000E4A7B6813600E4A7B681360FFF72EFF96
:102BC000FB78002B04D00B4B1B680133094A1360C0
:102BD000012318460837BD4680BD00BF840300208E
:102BE0001703002014030020800300207C03002032
:102BF000780300208803002080B582B000AF7860A1
:102C0000FFF718FF0346002B04D00E4B00221A706A
:102C1000012312E00C4B1B6801330B4A1360094B74
:102C20001B78FF2B05D0074B1B780133DAB2054B1D
:102C30001A707868FFF73EFF002318460837BD4634
:102C400080BD00BF170300208403002080B584B03E
:102C500000AF03463960FB71FB79072B1FD83B6837
:102C6000002B1CD0FB79DB00DBB243F04003DBB26E
:102C7000184600F09BFF0023FB730CE0FB7B3A68D7
:102C800013441B7803F01F03DBB2184600F0BEFFAD
:102C9000FB7B0133FB73FB7B072BEFD900E000BF0D
:102CA0001037BD4680BD000080B584B000AF012361
:102CB000FB7323E0FB7BC3F105031F2202FA03F33E
:102CC000DBB203F01F037B730023BB7308E0BB7B05
:102CD00010333B447A7B03F80C2CBB7B0133BB7372
:102CE000BB7B072BF3D9FB7B013BDBB23A1D1146C3
:102CF0001846FFF7ABFFFB7B0133FB73FB7B052B18
:102D0000D8D906490520FFF7A1FF05490620FFF79E
:102D10009DFF00BF1037BD4680BD00BF94BC0008BA
:102D20009CBC000880B582B000AF786014222021DE
:102D3000786806F0C6FD00BF0837BD4680BD80B488
:102D400085B000AFF8600B467A60FB72FB68002B21
:102D500019D07B68002B16D0FB7A132B13D80AE00E
:102D60007B685A1C7A60FA7A511CF9721146FA682B
:102D70000A441B7813707B681B78002B04D0FB7A05
:102D8000132BEDD900E000BF1437BD4680BC70475F
:102D900080B584B000AF03463960FB71FB79032B2B
:102DA00034D83B68002B31D0FA7913469B0013448A
:102DB0009B00194A134414223968184606F071FD25
:102DC0000346002B24D0FB7901330021184600F084
:102DD0007FFF0023FB7309E0FB7B3A6813441B78F9
:102DE000184600F013FFFB7B0133FB73FB7B132BB7
:102DF000F2D9FA7913469B0013449B00064A134408
:102E000014223968184606F0EAFD02E000BF00E02F
:102E100000BF1037BD4680BD1803002080B588B0C4
:102E200000AF78607B68384AA2FB03235B09FB771D
:102E3000FB7F0A2B01D90A23FB7707F10803184609
:102E4000FFF770FF07F10803304A00211846FFF72B
:102E500076FF07F1080319460020FFF799FF07F1F5
:102E600008031846FFF75EFF05237B7307F108038D
:102E7000274A07211846FFF762FF07F108031946A2
:102E80000120FFF785FF07F108031846FFF74AFF07
:102E900007F108031F4A02211846FFF750FF07F108
:102EA000080319460220FFF773FF07F108031846CD
:102EB000FFF738FF07F10803174A00211846FFF70C
:102EC0003EFF0023BB770FE0BA7FFB7F9A4201D21F
:102ED000232200E02D22BB7F063320333B4403F83E
:102EE000182CBB7F0133BB77BB7F092BECD95D234B
:102EF0003B7607F1080319460320FFF749FF00BF9F
:102F00002037BD4680BD00BFB5814E1B80BA00088A
:102F100098BA0008A0BA0008B4BA000880B588B012
:102F200000AF786039607868FFF7FCFE3D4A002109
:102F30007868FFF704FF7B680E335D221A707B68A8
:102F40000F3320221A703B685B7C03F00403002BD4
:102F500005D03B689B8942F21072934205D9324AF0
:102F600010217868FFF7EBFE59E03B689B8932330C
:102F70002E4AA2FB03235B097B833B689B891A468D
:102F800013465B0013441A01D31A03F59C5308330C
:102F9000274AA2FB03235B0BFB83FB8B2D2B01D961
:102FA0002D23FB8300237B7728E000233B777B7F67
:102FB0009BB21A46920013443B83FA8B3B8B9A4296
:102FC0000BD9FA8B3B8BD31AFB82FB8A052B02D8D9
:102FD000FB8ADBB200E005233B773B7F002B03D06D
:102FE0003B7F013BD9B200E020217B7F05337A682B
:102FF00013440A461A707B7F01337B777B7F082B53
:10300000D3D97B8B07F10C000A4A082106F0D2FBCA
:1030100007F10C031A4610217868FFF790FE20375D
:10302000BD4680BDBCBA0008C4BA00081F85EB517C
:103030005917B7D1CCBA000880B588B002AF786014
:1030400039603B685B7C03F00203002B05D11C4A0E
:103050000C21786806F0AEFB2FE03B68B3F90E3028
:103060007B617B69002B01DA164B00E0164B3B615C
:103070007B69002B02DA7B695B427B617B690533EC
:103080001A46124BA3FB0223DB08FB60FB680F4AC6
:10309000A2FB0323D808F9680C4BA3FB0123DA0831
:1030A00013469B0013445B00CA1A019200903B69CF
:1030B000074A0C21786806F07DFB1837BD4680BDB5
:1030C000D4BA0008DCBA0008E0BA0008CDCCCCCCF9
:1030D000E4BA000880B582B000AF786039607868E3
:1030E000FFF720FE7B6805221A70104A02217868DB
:1030F000FFF725FE3B685B7C03F01003002B05D037
:103100000B4A10217868FFF71AFE0BE03B681B7C26
:10311000002B01D0074B00E0074B1A4610217868BE
:10312000FFF70DFE00BF0837BD4680BDF0BA0008AE
:10313000FCBA000804BB00080CBB0008B0B58CB09A
:1031400002AF786039607868FFF7ECFD3B685B7C24
:1031500003F00103002B28D03B681B893C4AA2FBEB
:1031600003239B099BB21C463B681B89384AA2FB80
:10317000031292094FF47A7101FB02F29B1A9BB27F
:10318000344AA2FB0323DB089BB207F10C00009337
:103190002346314A162106F00DFB07F10C031A46AF
:1031A00000217868FFF7CBFD04E02C4A0021786805
:1031B000FFF7C5FD3B685B7C03F00803002B3ED0A6
:1031C0003B68B3F90A307B627B6A002B01DA2D235E
:1031D00000E02B2387F823307B6A002B02DA7B6A1E
:1031E0005B427B6297F823407B6A194A82FB031299
:1031F0009211DB17D31A1D467A6A154B83FB021313
:103200009911D317CB1A4FF47A7101FB03F3D31A38
:10321000134A82FB03129210DB17D31A07F10C003A
:103220000193009523460F4A162106F0C3FA07F1D1
:103230000C031A460A217868FFF781FD04E00A4A68
:103240000A217868FFF77BFD00BF2837BD46B0BD77
:10325000D34D6210CDCCCCCC14BB000824BB0008ED
:103260006766666630BB000840BB000880B586B064
:1032700000AF786039607868FFF754FD7B680622FC
:103280001A7007F10C0339681846FFF7D5FE07F1ED
:103290000C031A4602217868FFF751FD3B681B7C3E
:1032A000002B01D0054B00E0054B1A460C21786835
:1032B000FFF745FD00BF1837BD4680BD4CBB000879
:1032C00054BB000880B586B000AF7860396078687C
:1032D000FFF728FD7B6806221A7007F10C03396896
:1032E0001846FFF7A9FE07F10C031A460221786879
:1032F000FFF725FD124A0B217868FFF720FD3B6898
:103300005B7C03F01003002B05D00E4A1121786876
:10331000FFF715FD10E03B685B7C03F00103002B19
:1033200005D0094A11217868FFF709FD04E0074A32
:1033300011217868FFF703FD00BF1837BD4680BD37
:103340005CBB000864BB000868BB00086CBB0008DD
:1033500090B58DB002AFF860B9601346FB71F868A4
:10336000FFF7E0FC002387F8273054E0FA7997F85C
:103370002730134487F8263097F82730002B01D1E7
:10338000002300E00A2387F82530BB685B7C03F04C
:103390000103002B29D097F82620BB6833F81230A0
:1033A0007B8497F82630591C7B8C1F4AA2FB032391
:1033B0009B099BB21C467B8C1B4AA2FB0302920911
:1033C0004FF47A7000FB02F29B1A9BB2174AA2FBE1
:1033D0000323DB089BB207F11400019300940B4612
:1033E000134A0E2106F0E6F908E097F8263001337B
:1033F00007F114000F4A0E2106F0DCF907F1140260
:1034000097F825301946F868FFF799FC97F82730A8
:10341000013387F8273097F82730012BA6D900BF52
:1034200000BF2C37BD4690BDD34D6210CDCCCCCC67
:1034300070BB000880BB000880B588B000AF786022
:103440002B4B1B78002B06D107F10C03796818462B
:10345000FFF740FE05E007F10C0379681846FFF717
:1034600031FF07F10C0319460020FFF791FC07F12B
:103470000C0379681846FFF751FD07F10C03194654
:103480000120FFF785FC1A4B1B78002B06D107F1B2
:103490000C0379681846FFF751FE06E007F10C03AC
:1034A000002279681846FFF753FF07F10C0319460D
:1034B0000220FFF76DFC0E4B1B78002B06D107F1A5
:1034C0000C0379681846FFF7D1FE06E007F10C03FC
:1034D000022279681846FFF73BFF07F10C031946F3
:1034E0000320FFF755FC00BF2037BD4680BD00BF5D
:1034F0001603002080B582B000AF7860264B002212
:103500001A70264B00221A70254B00221A70254B88
:1035100000221A70244A7B6813607B68FA3B234AB6
:103520001360234A7B6813607B68A3F57A73214A92
:103530001360214A7B681360204A7B681360204B2C
:1035400000221A701F4B00221A601F4B00221A60C3
:103550001E4B00221A601E4B00221A60FFF75EFA13
:1035600000217868FFF7C0FA034683F00103DBB25D
:10357000002B0CD10020FFF751FC01F03FF803466F
:10358000094A1360084B1B68084A136000E000BF3B
:103590000837BD4680BD00BF14030020150300207E
:1035A0001603002017030020680300206C0300208E
:1035B0007003002074030020780300207C030020A7
:1035C0008003002084030020880300208C03002057
:1035D0009003002080B586B000AFF860B960134654
:1035E000FB71FB68002B00F0E3807A4B1B78002B0B
:1035F0002BD1794B1B68BA68D31AB3F57A7FC0F028
:10360000D980754ABB6813600121B868FFF76CFA6E
:10361000034683F00103DBB2002B40F0CD806F4BFB
:103620001B78002B0AD16E4B1B68BA68D31A184658
:10363000FFF7F4FB6B4ABB681360C8E0F868FFF75C
:10364000FBFE684ABB681360C1E0674B1B68BA6841
:10365000D31A47F22F52934222D90121B868FFF7BB
:1036600043FA034683F00103DBB2002B40F0A6804F
:103670005E4B1B6801335D4A1360584B1B78002B6F
:1036800003D0F868FFF7D8FE06E0554B1B68BA6810
:10369000D31A1846FFF7C2FB524ABB68136096E084
:1036A0004E4B1B78002B3DD14D4B1B68BA68D31A8B
:1036B00040F6B73293428CBF01230023FB75FB7D9C
:1036C00083F00103DBB2002B05D1FB7983F001030A
:1036D000DBB2002B19D0434B1B68BA68D31AF92B05
:1036E0006ED9404ABB681360B868FFF785FA034695
:1036F00083F00103DBB2002B64D1394B1B68BA683D
:10370000D31A1846FFF78AFB5AE0344B01221A708D
:10371000BB68A3F57A73334A1360354ABB681360FC
:10372000FFF77CF9334B1B78002B02D141F2707309
:1037300001E04FF47A633B612D4B1B68BA68D31AE2
:103740003A699A4210D82B4B1B7883F00103DAB206
:10375000284B1A70264ABB681360BB68A3F57A73BE
:10376000204A1360FFF75AF9234B1B68BA68D31A33
:1037700041F28732934204D91F4ABB681360FFF7B6
:103780004DF9184B1B68BA68D31AB3F57A7F1BD36F
:10379000144ABB681360B868FFF72EFA034683F03B
:1037A0000103DBB2002B11D1F868FFF745FE0EE0F4
:1037B00000BF0CE000BF0AE000BF08E000BF06E069
:1037C00000BF04E000BF02E000BF00E000BF183708
:1037D000BD4680BD140300207403002015030020A3
:1037E000680300206C0300207C030020900300206D
:1037F00070030020160300207803002080B485B0F9
:1038000000AF78600B46FB700023FB730023BB7393
:1038100021E0BB7B7A6813441A78FB7B5340FB732F
:1038200000237B7311E097F90F30002B06DAFB7B46
:103830005B00DBB283F00703DBB202E0FB7B5B00E3
:10384000DBB2FB737B7B01337B737B7B072BEAD97A
:10385000BB7B0133BB73BA7BFB789A42D9D3FB7B2A
:1038600018461437BD4680BC704780B483B000AFA3
:1038700078600B467B807B88DAB27B681A707B8825
:103880001B0A9AB27B680133D2B21A7000BF0C37A0
:10389000BD4680BC7047000080B582B000AF786044
:1038A0000A4A7B6813600A4B00221A70094B0022F7
:1038B0001A70064B1B6801220749184604F031FCB8
:1038C000034618460837BD4680BD00BF940300205C
:1038D000C0030020C10300209803002080B584B0FD
:1038E00000AF78603D4B1B68002B73D03B4B1B68CF
:1038F0007A689A426ED13A4B1B78BB73394B1B786E
:10390000FB73FB7B002B0AD1BB7BAA2B57D1FB7B24
:103910005A1CFA731946344ABB7B53544FE0FB7B65
:10392000232B01D90023FB73FB7B002B06D0FB7BF1
:103930005A1CFA7319462C4ABB7B5354FB7B032B4E
:1039400005D1294B9B78202B01D90023FB73FB7BEE
:10395000022B34D9244B9B780433DBB2FA7B9A4296
:103960002DD1214B9B787B731F4B5B78002B24D18F
:103970007B7B032B21D11C4BDB78012B1DD17B7B67
:103980000233DBB219461948FFF738FF03461946E0
:103990007B7B0333144AD35C99420ED1124B1B79C3
:1039A0001AB2114B5B791B021BB213431BB29AB2C2
:1039B0000F4B1A800F4B01221A700023FB73094A28
:1039C000FB7B1370054B1B6801220549184604F068
:1039D000A8FB00E000BF1037BD4680BD9403002067
:1039E00098030020C00300209C0300209D030020BA
:1039F000C2030020C103002080B582B000AF786010
:103A00000E4B1B68002B14D00C4B1B687A689A4233
:103A10000FD10B4B00221A70084B1B68184604F09C
:103A2000A5FB064B1B6801220649184604F079FBEA
:103A300000E000BF0837BD4680BD00BF94030020F2
:103A4000C003002098030020B0B592B000AF7860AA
:103A50003960534B1B68002B00F09D807B68002B66
:103A600000F099804F4B1B78DBB2002B00F0938065
:103A700072B600BF4C4B1B88A7F84430494B00225C
:103A80001A7062B600BF7B6807F128041D460FCD8F
:103A90000FC495E8030084E80300FB6B3A68D31A6F
:103AA00040F2DC52934206D997F8393023F00F03E5
:103AB000DBB287F8393007F10C0303333B64AA23E8
:103AC0003B7302237B731523BB733B6C91221A70EB
:103AD0003B6C0133B7F8442011461846FFF7C5FE8A
:103AE000002387F8473015E097F847305B00033331
:103AF0003A6C1A4497F847305B0048333B4433F83C
:103B0000203C19461046FFF7B0FE97F847300133C6
:103B100087F8473097F84730032BE5D93B6C0B33D8
:103B20003A8E11461846FFF7A0FE3B6C0D33B7F9ED
:103B3000322092B211461846FFF797FE3B6C0F33C6
:103B4000BA8E11461846FFF790FE3B6C1133B7F959
:103B5000362092B211461846FFF787FE3B6C1333AE
:103B600097F838201A703B6C143397F839201A7084
:103B700007F10C03013317211846FFF73FFE0346F8
:103B800087F82430064B186807F10C010A23192224
:103B900004F03CFA00E000BF4837BD46B0BD00BFAE
:103BA00094030020C1030020C203002080B586B02A
:103BB00002AF0346FB71FB7923F00F03FB73FB7924
:103BC0001B01BB73FB7B43F00C03DBB23B72FB7B43
:103BD00043F00803DBB27B72BB7B43F00C03DBB228
:103BE000BB72BB7B43F00803DBB2FB7207F1080238
:103BF0006423009304234E21034801F0E3FF00BF38
:103C00001037BD4680BD00BFF403002080B586B0EC
:103C100002AF0346FB71FB7923F00F03FB73FB79C3
:103C20001B01BB73FB7B43F00D03DBB23B72FB7BE1
:103C300043F00903DBB27B72BB7B43F00D03DBB2C5
:103C4000BB72BB7B43F00903DBB2FB7207F10802D6
:103C50006423009304234E21034801F0B3FF00BF07
:103C60001037BD4680BD00BFF403002080B500AF13
:103C70003320FFF79BFF052000F0CAFC3220FFF73E
:103C800095FF052000F0C4FC2820FFF78FFF0520DA
:103C900000F0BEFC0120FFF789FF052000F0B8FC12
:103CA0000620FFF783FF052000F0B2FC0C20FFF791
:103CB0007DFF052000F0ACFC0220FFF777FF052018
:103CC00000F0A6FC8020FFF771FF00BF80BD000060
:103CD00080B584B000AF786039600F4BFB607B68C3
:103CE000002B14DD7B68042B11DC7B68013B103357
:103CF0003B4413F8042C3B68DBB21344DBB25BB2E9
:103D000063F07F035BB2DBB21846FFF74FFF00BFE3
:103D10001037BD4680BD00BF0040145480B500AFD1
:103D200000F014FC00F00FF800F01CF900F08EF821
:103D300000F058F800F0F2F800F0B2F8FEF75EFC80
:103D4000FEF79CFCFCE780B594B000AF07F12803B8
:103D500028220021184605F0B4FD07F114030022C3
:103D60001A605A609A60DA601A613B1D00221A607C
:103D70005A609A60DA600123BB624FF48033FB62C1
:103D800000233B630123BB6302237B644FF4803336
:103D9000BB644FF4E013FB6407F12803184602F0FC
:103DA00051FF0F237B610223BB610023FB614FF4B2
:103DB00080633B6200237B6207F1140302211846F3
:103DC00003F0C2F902237B604FF40043FB603B1D0C
:103DD000184603F06DFB03F0A1FA00BF5037BD4653
:103DE00080BD000080B584B000AF3B1D00221A608A
:103DF0005A609A60134B144A1A60124B00229A6060
:103E0000104B00221A730F4B00221A750D4B4FF402
:103E10006022DA610B4B00225A600A4B01221A61C0
:103E2000084800F019FC06237B600123BB600023D7
:103E3000FB603B1D1946034800F0D2FE00BF10375F
:103E4000BD4680BDC40300200024014080B500AF02
:103E5000104B114A1A600F4B104A5A600D4B00224A
:103E60009A600C4B0022DA600A4B4FF480421A61D0
:103E7000084B00225A61074B00229A61054B002231
:103E8000DA61044B00221A62024801F027FD00BFEC
:103E900080BD00BFF403002000540040A086010054
:103EA00080B586B000AF07F1080300221A605A609F
:103EB0009A60DA603B4600221A605A60164B4FF057
:103EC00080421A60144B41F61F425A60124B002286
:103ED0009A60114B0922DA600F4B00221A610E4BD7
:103EE00000229A610C4803F04FFC4FF48053BB60F2
:103EF00007F108031946084803F0D8FD00233B608A
:103F000000237B603B461946034803F0BFFF00BF18
:103F10001837BD4680BD00BF4804002080B500AF03
:103F20000E4B0F4A1A600D4B4FF4E1325A600B4BA7
:103F300000229A60094B0022DA60084B00221A61C5
:103F4000064B0C225A61054B00229A61034B00225A
:103F5000DA61024804F00AF800BF80BD9004002036
:103F60000044004080B588B000AF07F11003002284
:103F70001A605A609A60DA60334B9B69324A43F0A8
:103F800010039361304B9B6903F01003FB60FB68E7
:103F90002D4B9B692C4A43F0200393612A4B9B696C
:103FA00003F02003BB60BB68274B9B69264A43F0A4
:103FB00004039361244B9B6903F004037B607B68DB
:103FC000214B9B69204A43F0080393611E4B9B6978
:103FD00003F008033B603B68002280211B4801F08E
:103FE00064FC01224FF40051194801F05EFC4FF4CB
:103FF00000533B6101237B610023BB610223FB6112
:1040000007F110031946124801F0F8F980233B61CB
:1040100001237B610023BB610223FB6107F11003D5
:1040200019460A4801F0EAF920233B6100237B612D
:104030000123BB6107F110031946064801F0DEF9C0
:1040400000BF2037BD4680BD00100240000801407F
:1040500000100140000C014080B400AF72B600BFF8
:1040600000BFFDE780B485B000AF154B9B69144AD3
:1040700043F001039361124B9B6903F00103BB60A2
:10408000BB680F4BDB690E4A43F08053D3610C4B86
:10409000DB6903F080537B607B680A4B5B68FB60E5
:1040A000FB6823F0E063FB60FB6843F00073FB6098
:1040B000044AFB68536000BF1437BD4680BC70479C
:1040C000001002400000014080B588B000AF786069
:1040D00007F1100300221A605A609A60DA607B6868
:1040E0001B68144A934221D1134B9B69124A43F433
:1040F00000739361104B9B6903F40073FB60FB68D2
:104100000D4B9B690C4A43F0040393610A4B9B6976
:1041100003F00403BB60BB6840233B6103237B6166
:1041200007F110031946054801F068F900BF203770
:10413000BD4680BD0024014000100240000801403F
:1041400080B588B000AF786007F1100300221A60D4
:104150005A609A60DA607B681B68154A934223D1E3
:10416000144B9B69134A43F008039361114B9B69FD
:1041700003F00803FB60FB68C0233B6112237B61F3
:104180000323FB6107F1100319460B4801F036F9D0
:10419000084BDB69074A43F40013D361054BDB6925
:1041A00003F40013BB60BB6800BF2037BD4680BD71
:1041B0000054004000100240000C014080B582B065
:1041C00000AF78607B681B680A4A93420DD10A4BA6
:1041D000DB69094A23F40013D3614021074801F049
:1041E00091FA8021054801F08DFA00BF0837BD46DD
:1041F00080BD00BF0054004000100240000C014090
:1042000080B584B000AF78607B681B68B3F1804FE5
:1042100013D10C4BDB690B4A43F00103D361094B0B
:10422000DB6903F00103FB60FB68002200211C2016
:1042300000F0EFFF1C2001F008F800BF1037BD466A
:1042400080BD00BF0010024080B588B000AF78602C
:1042500007F1100300221A605A609A60DA607B68E6
:104260001B681F4A934237D11E4BDB691D4A43F43A
:104270000033D3611B4BDB6903F40033FB60FB6845
:10428000184B9B69174A43F004039361154B9B69D4
:1042900003F00403BB60BB6804233B6102237B6122
:1042A0000323FB6107F1100319460F4801F0A6F83C
:1042B00008233B6100237B610023BB6107F11003EE
:1042C0001946094801F09AF800220021262000F042
:1042D000A0FF262000F0B9FF00BF2037BD4680BDFB
:1042E00000440040001002400008014080B500AFCB
:1042F00003F0A6F800BFFDE780B400AF00BFFDE704
:1043000080B400AF00BFFDE780B400AF00BFFDE7A1
:1043100080B400AF00BFFDE780B400AF00BFBD4672
:1043200080BC704780B400AF00BFBD4680BC704702
:1043300080B400AF00BFBD4680BC704780B500AF01
:1043400000F04AF900BF80BD80B500AF024803F01D
:10435000BDFA00BF80BD00BF4804002080B500AF9B
:10436000024803F0A7FF00BF80BD00BF90040020FB
:1043700080B400AF01231846BD4680BC704780B5AD
:1043800082B000AF7860396005F0EEFA034616227D
:104390001A604FF0FF3318460837BD4680BD80B520
:1043A00082B000AF78604FF0FF317868FFF7E7FF29
:1043B00000BFFDE780B586B000AFF860B9607A60F5
:1043C00000237B610AE0AFF300800146BB685A1C02
:1043D000BA60CAB21A707B6901337B617A697B6803
:1043E0009A42F0DB7B6818461837BD4680BD80B521
:1043F00086B000AFF860B9607A6000237B6109E0A5
:10440000BB685A1CBA601B781846AFF300807B6902
:1044100001337B617A697B689A42F1DB7B681846DD
:104420001837BD4680BD80B483B000AF78604FF0D0
:10443000FF3318460C37BD4680BC704780B483B04C
:1044400000AF786039603B684FF400525A60002337
:1044500018460C37BD4680BC704780B483B000AFAF
:104460007860012318460C37BD4680BC704780B485
:1044700085B000AFF860B9607A6000231846143741
:10448000BD4680BC7047000080B586B000AF786044
:10449000144A154BD31A7B617B693B61134B1B6834
:1044A000002B02D1114B124A1A60104B1A687B681C
:1044B00013443A699A4207D205F056FA03460C2291
:1044C0001A604FF0FF3309E0084B1B68FB60074B95
:1044D0001A687B681344054A1360FB68184618374E
:1044E000BD4680BD0050002000040000D80400201C
:1044F0003006002080B400AF00BFBD4680BC7047CE
:10450000FFF7F8FF0B480C490C4A002302E0D4588F
:10451000C4500433C4188C42F9D3094A094C00230F
:1045200001E013600432A242FBD305F023FAFFF747
:10453000F5FB704700000020D801002060C0000893
:10454000D80100202C060020FEE7000080B500AF57
:10455000084B1B68074A43F010031360032000F068
:104560004DFE0F2000F008F8FFF77CFD00231846F1
:1045700080BD00BF0020024080B582B000AF7860EF
:10458000124B1A68124B1B7819464FF47A73B3FB1F
:10459000F1F3B2FBF3F3184600F065FE0346002B7F
:1045A00001D001230EE07B680F2B0AD80022796826
:1045B0004FF0FF3000F02DFE064A7B6813600023A9
:1045C00000E0012318460837BD4680BD04000020E6
:1045D0000C0000200800002080B400AF054B1B78C1
:1045E0001A46054B1B681344034A136000BFBD46BF
:1045F00080BC70470C000020DC04002080B400AFB9
:10460000024B1B681846BD4680BC7047DC04002086
:1046100080B584B000AF7860FFF7F0FFB8607B68CA
:10462000FB60FB68B3F1FF3F05D00A4B1B781A46CD
:10463000FB681344FB6000BFFFF7E0FF0246BB6866
:10464000D31AFA689A42F7D800BF00BF1037BD46A8
:1046500080BD00BF0C00002080B586B000AF786040
:104660000023FB7500233B610023BB600023FB603C
:104670007B68002B01D10123BEE07B689B68002B87
:104680007B689B6A002B09D17B680022DA627B6819
:10469000002283F824207868FFF716FD786800F080
:1046A000F1FB0346FB757B689B6A03F01003002B4C
:1046B00040F09980FB7D002B40F095807B689B6AE1
:1046C00023F4885323F0020343F002027B689A62CA
:1046D0007B685A687B68DB691A437B681B7B5B00DD
:1046E0001343BA681343BB607B689B68B3F5807F54
:1046F00003D07B689B68012B02D14FF4807300E0EC
:1047000000233A6913433B617B681B7D012B19D160
:104710007B681B7B002B09D17B689B69013B5A039B
:104720003B69134343F400633B610BE07B689B6A86
:1047300043F020027B689A627B68DB6A43F00102E7
:104740007B68DA627B681B685B6823F469417B687D
:104750001B683A690A435A607B681B689A68284B51
:1047600013407A681268B9680B4393607B689B6852
:10477000B3F5807F03D07B689B68012B04D17B68F5
:104780001B69013B1B05FB607B681B68DB6A23F42C
:1047900070017B681B68FA680A43DA627B681B68F1
:1047A0009A68184B1340BA689A420BD17B68002272
:1047B000DA627B689B6A23F0030343F001027B68A3
:1047C0009A6218E07B689B6A23F0120343F01002A0
:1047D0007B689A627B68DB6A43F001027B68DA627D
:1047E0000123FB7507E07B689B6A43F010027B683E
:1047F0009A620123FB75FB7D18461837BD4680BDC4
:10480000FDF7E1FFFE0E1FFF80B584B000AF7860BA
:104810000023FB737B6893F82430012B01D1022322
:1048200098E07B68012283F82420786800F0D0FAB1
:104830000346FB73FB7B002B40F087807B689B6A01
:1048400023F4407323F0010343F480727B689A627F
:104850007B681B68414A934205D1414B5B6803F476
:104860007023002B15D17B689B6A23F480127B6830
:104870009A627B681B685B6803F48063002B26D018
:104880007B689B6A23F4405343F480527B689A62AE
:104890001DE07B689B6A43F480127B689A627B68A8
:1048A0001B682F4A934204D07B681B682B4A9342B3
:1048B0000DD12B4B5B6803F48063002B07D07B6822
:1048C0009B6A23F4405343F480527B689A627B686E
:1048D0009B6A03F48053002B06D07B68DB6A23F0CD
:1048E00006027B68DA6202E07B680022DA627B689B
:1048F000002283F824207B681B686FF002021A6094
:104900007B681B689B6803F46023B3F5602F13D1A9
:104910007B681B68114A934205D1114B5B6803F415
:104920007023002B08D17B681B689A687B681B6822
:1049300042F4A0029A600CE07B681B689A687B686E
:104940001B6842F480129A6003E07B68002283F8BF
:104950002420FB7B18461037BD4680BD002801404F
:104960000024014080B584B000AF78600023FB7361
:104970007B6893F82430012B01D102231AE07B6875
:10498000012283F82420786800F07CFA0346FB7348
:10499000FB7B002B09D17B689B6A23F4885323F0AF
:1049A000010343F001027B689A627B68002283F86E
:1049B0002420FB7B18461037BD4680BD90B587B0DC
:1049C00000AF7860396000237B610023FB60002327
:1049D0003B61FFF713FE78617B681B689B6803F4FB
:1049E0008073002B0BD07B689B6A43F020027B68AE
:1049F0009A627B68002283F824200123D3E07B683D
:104A00001B685B6803F48073002B31D17B681B68E3
:104A1000DB6A03F47003002B2AD121E03B68B3F179
:104A2000FF3F1DD03B68002B07D0FFF7E7FD024694
:104A30007B69D31A3A689A4212D27B681B681B685A
:104A400003F00203002B0BD17B689B6A43F0040246
:104A50007B689A627B68002283F824200323A2E00B
:104A60007B681B681B6803F00203002BD6D070E044
:104A70004F4B1C68022002F0D1FD0346B4FBF3F259
:104A80007B681B6819694B4B0B40002B18D17B6866
:104A90001B68D968484B0B40002B11D17B681B6801
:104AA0001969464B0B40002B08D17B681B68D968FD
:104AB000434B0B40002B01D1142320E029231EE09F
:104AC0007B681B6819693D4B0B40002B06D17B6846
:104AD0001B68D9683A4B0B40002B0DD07B681B68D4
:104AE0001969384B0B40002B08D17B681B68D968CB
:104AF000344B0B40002B01D1542300E0FC2302FB7C
:104B000003F33B6121E03B68B3F1FF3F1AD03B6800
:104B1000002B07D0FFF772FD02467B69D31A3A6873
:104B20009A420FD2FB683A699A420BD97B689B6A1A
:104B300043F004027B689A627B68002283F8242099
:104B4000032330E0FB680133FB60FB683A699A425B
:104B5000D9D87B681B686FF012021A607B689B6A69
:104B600043F400727B689A627B681B689B6803F45D
:104B70006023B3F5602F15D17B681B7B002B11D10F
:104B80007B689B6A23F480727B689A627B689B6A6D
:104B900003F48053002B05D17B689B6A43F001022C
:104BA0007B689A62002318461C37BD4690BD00BF43
:104BB000040000202449922424499200922449129E
:104BC000922449004992240080B483B000AF7860F9
:104BD0007B681B68DB6C18460C37BD4680BC704791
:104BE00080B485B000AF786039600023FB73002388
:104BF000BB607B6893F82430012B01D10223DCE0F9
:104C00007B68012283F824203B685B68062B1CD854
:104C10007B681B68596B3B685A6813469B001344BA
:104C2000053B1F2202FA03F3DB4319403B68186877
:104C30003B685A6813469B001344053B00FA03F295
:104C40007B681B680A435A633CE03B685B680C2B3B
:104C50001CD87B681B68196B3B685A6813469B001D
:104C60001344233B1F2202FA03F3DB4319403B6842
:104C700018683B685A6813469B001344233B00FAAC
:104C800003F27B681B680A431A631BE07B681B689E
:104C9000D96A3B685A6813469B001344413B1F2264
:104CA00002FA03F3DB4319403B6818683B685A6813
:104CB00013469B001344413B00FA03F27B681B68D8
:104CC0000A43DA623B681B68092B1CD97B681B68A6
:104CD000D9683B681A6813465B0013441E3B0722E1
:104CE00002FA03F3DB4319403B6898683B681A6893
:104CF00013465B0013441E3B00FA03F27B681B68FB
:104D00000A43DA6019E07B681B6819693B681A6816
:104D100013465B001344072202FA03F3DB431940F6
:104D20003B6898683B681A6813465B00134400FAB6
:104D300003F27B681B680A431A613B681B68102BEF
:104D400003D03B681B68112B32D17B681B681D4A5E
:104D5000934225D17B681B689B6803F40003002BFA
:104D600026D17B681B689A687B681B6842F4000246
:104D70009A603B681B68102B1AD1134B1B68134AAF
:104D8000A2FB03239A0C13469B0013445B00BB60F9
:104D900002E0BB68013BBB60BB68002BF9D107E0B8
:104DA0007B689B6A43F020027B689A620123FB7355
:104DB0007B68002283F82420FB7B18461437BD460D
:104DC00080BC7047002401400400002083DE1B43A8
:104DD00080B584B000AF78600023FB600023BB6027
:104DE0007B681B689B6803F00103012B40D07B6844
:104DF0001B689A687B681B6842F001029A601F4B2F
:104E00001B681F4AA2FB03239B0CBB6002E0BB682C
:104E1000013BBB60BB68002BF9D1FFF7EFFBF860EB
:104E20001FE0FFF7EBFB0246FB68D31A022B18D9F1
:104E30007B681B689B6803F00103012B11D07B6822
:104E40009B6A43F010027B689A627B68DB6A43F0DE
:104E500001027B68DA627B68002283F82420012348
:104E600007E07B681B689B6803F00103012BD8D126
:104E7000002318461037BD4680BD00BF0400002047
:104E800083DE1B4380B584B000AF78600023FB60F5
:104E90007B681B689B6803F00103012B2ED17B68A4
:104EA0001B689A687B681B6822F001029A60FFF712
:104EB000A5FBF8601BE0FFF7A1FB0246FB68D31AD5
:104EC000022B14D97B681B689B6803F00103012B3C
:104ED0000DD17B689B6A43F010027B689A627B6805
:104EE000DB6A43F001027B68DA62012307E07B683A
:104EF0001B689B6803F00103012BDCD000231846DC
:104F00001037BD4680BD000090B587B000AF786017
:104F10000023FB750023FB607B6893F82430012B92
:104F200001D1022397E07B68012283F8242078686E
:104F3000FFF7A8FF0346FB757868FFF749FF0346B4
:104F4000FB75FB7D002B40F081807B689B6A23F41E
:104F5000885323F0020343F002027B689A62404BBD
:104F60001C68022002F05AFB0346B4FBF3F35B001B
:104F7000FB6002E0FB68013BFB60FB68002BF9D1A2
:104F80007B681B689A687B681B6842F008029A601D
:104F9000FFF734FB38611BE0FFF730FB02463B694B
:104FA000D31A0A2B14D97B681B689B6803F008038B
:104FB000002B0DD07B689B6A23F0120343F0100294
:104FC0007B689A627B68002283F82420012342E0F8
:104FD0007B681B689B6803F00803002BDCD17B68AF
:104FE0001B689A687B681B6842F004029A60FFF7AE
:104FF00005FB38611BE0FFF701FB02463B69D31A52
:105000000A2B14D97B681B689B6803F00403002BF0
:105010000DD07B689B6A23F0120343F010027B687B
:105020009A627B68002283F82420012313E07B68C6
:105030001B689B6803F00403002BDCD17B689B6A30
:1050400023F0030343F001027B689A627B6800222D
:1050500083F82420FB7D18461C37BD4690BD00BF59
:105060000400002080B485B000AF78607B6803F056
:105070000703FB600C4BDB68BB60BA684FF6FF03AD
:105080001340BB60FB681A02BB68134343F0BF6365
:1050900043F40033BB60044ABB68D36000BF1437DD
:1050A000BD4680BC704700BF00ED00E080B400AF9B
:1050B000044BDB681B0A03F007031846BD4680BC9F
:1050C000704700BF00ED00E080B483B000AF03463E
:1050D000FB7197F90730002B0BDBFB7903F01F0204
:1050E000064997F907305B09012000FA02F241F8FE
:1050F000232000BF0C37BD4680BC704700E100E0B4
:1051000080B483B000AF03463960FB7197F9073074
:10511000002B0ADB3B68DAB20C4997F90730120121
:10512000D2B20B4483F800230AE03B68DAB20849A4
:10513000FB7903F00F03043B1201D2B20B441A7641
:1051400000BF0C37BD4680BC704700BF00E100E0E7
:1051500000ED00E080B489B000AFF860B9607A601B
:10516000FB6803F00703FB61FB69C3F10703042B32
:1051700028BF0423BB61FB690433062B02D9FB69FA
:10518000033B00E000237B614FF0FF32BB6902FA72
:1051900003F3DA43BB681A407B699A404FF0FF3152
:1051A0007B6901FA03F3D9437B680B40134318462C
:1051B0002437BD4680BC704780B582B000AF7860B0
:1051C0007B68013BB3F1807F01D301230FE00A4AE2
:1051D0007B68013B53600F214FF0FF30FFF790FFDA
:1051E000054B00229A60044B07221A6000231846E0
:1051F0000837BD4680BD00BF10E000E080B582B03A
:1052000000AF78607868FFF72DFF00BF0837BD4614
:1052100080BD80B586B000AF0346B9607A60FB738D
:1052200000237B61FFF742FF78617A68B96878698B
:10523000FFF790FF024697F90F3011461846FFF727
:105240005FFF00BF1837BD4680BD80B582B000AF9C
:105250000346FB7197F907301846FFF735FF00BF8B
:105260000837BD4680BD80B582B000AF78607868F1
:10527000FFF7A2FF034618460837BD4680BD80B43D
:1052800085B000AF78600023FB737B6893F8213012
:10529000DBB2022B08D07B6804229A637B68002271
:1052A00083F82020012320E07B681B681A687B6854
:1052B0001B6822F00E021A607B681B681A687B6804
:1052C0001B6822F001021A607B681A6C7B68DB6B3A
:1052D000012101FA02F25A607B68012283F8212041
:1052E0007B68002283F82020FB7B18461437BD46DC
:1052F00080BC704780B584B000AF78600023FB733A
:105300007B6893F82130DBB2022B05D07B68042246
:105310009A630123FB7351E07B681B681A687B6802
:105320001B6822F00E021A607B681B681A687B6893
:105330001B6822F001021A607B681B68224A9342B4
:1053400029D07B681B68214A934222D07B681B6866
:105350001F4A93421AD07B681B681E4A934212D0A0
:105360007B681B681C4A93420AD07B681B681B4AF7
:10537000934202D14FF480130EE04FF080730BE0A4
:105380004FF4803308E04FF4805305E04FF480730E
:1053900002E0102300E00123114A53607B680122E0
:1053A00083F821207B68002283F820207B685B6BD8
:1053B000002B03D07B685B6B78689847FB7B1846B3
:1053C0001037BD4680BD00BF080002401C000240EF
:1053D0003000024044000240580002406C0002408D
:1053E0000000024080B483B000AF78607B689B6BA4
:1053F00018460C37BD4680BC7047000080B48BB0A7
:1054000000AF7860396000237B6200233B6269E172
:1054100001227B6A02FA03F3FB613B681B68FA69AD
:105420001340BB61BA69FB699A4240F058813B68FE
:105430005B689A4A93425ED0984A934275D8984ADC
:10544000934258D0964A93426FD8964A934252D08C
:10545000944A934269D8944A93424CD0924A9342D8
:1054600063D8924A934246D0904A93425DD8122B19
:105470002AD8122B59D801A252F823F0F754000869
:10548000D1540008E3540008255500082B550008A6
:105490002B5500082B5500082B5500082B550008EC
:1054A0002B5500082B5500082B5500082B550008DC
:1054B0002B5500082B5500082B5500082B550008CC
:1054C000D9540008ED540008794A934213D02CE0D7
:1054D0003B68DB683B6229E03B68DB6804333B6286
:1054E00024E03B68DB6808333B621FE03B68DB6815
:1054F0000C333B621AE03B689B68002B02D104230B
:105500003B6213E03B689B68012B05D108233B629B
:105510007B68FA691A6109E008233B627B68FA69D3
:105520005A6103E000233B6200E000BFBB69FF2B30
:1055300001D87B6801E07B6804337B61BB69FF2B8A
:1055400002D87B6A9B0002E07B6A083B9B003B61C0
:105550007B691A680F213B6901FA03F3DB431A40A8
:10556000396A3B6901FA03F31A437B691A603B68A5
:105570005B6803F08053002B00F0B1804D4B9B69BA
:105580004C4A43F0010393614A4B9B6903F00103CA
:10559000BB60BB68484A7B6A9B08023352F82330E1
:1055A000FB607B6A03F003039B000F2202FA03F304
:1055B000DB43FA681340FB607B68404A934213D098
:1055C0007B683F4A93420DD07B683E4A934207D0A6
:1055D0007B683D4A934201D1032306E0042304E0A3
:1055E000022302E0012300E000237A6A02F00302B2
:1055F00092009340FA681343FB602F497B6A9B0833
:105600000233FA6841F823203B685B6803F4801397
:10561000002B06D02D4B9A682C49BB6913438B6035
:1056200006E02A4B9A68BB69DB43284913408B602C
:105630003B685B6803F40013002B06D0234BDA6849
:105640002249BB691343CB6006E0204BDA68BB6993
:10565000DB431E491340CB603B685B6803F40033B7
:10566000002B06D0194B5A681849BB6913434B608D
:1056700006E0164B5A68BB69DB43144913404B6084
:105680003B685B6803F48033002B21D00F4B1A6812
:105690000E49BB6913430B6021E000BF00003210CC
:1056A0000000311000002210000021100000121034
:1056B00000001110001002400000014000080140ED
:1056C000000C0140001001400014014000040140A2
:1056D0000B4B1A68BB69DB43094913400B607B6ABB
:1056E00001337B623B681A687B6A22FA03F3002B62
:1056F0007FF48EAE00BF00BF2C37BD4680BC704724
:105700000004014080B489B000AF786039600023A4
:10571000FB619AE00122FB6902FA03F33A68134045
:10572000BB61BB69002B00F08D804E4AFB699B0872
:10573000023352F823307B61FB6903F003039B00C3
:105740000F2202FA03F37A6913407B617B68464AB1
:10575000934213D07B68454A93420DD07B68444AFC
:10576000934207D07B68434A934201D1032306E06A
:10577000042304E0022302E0012300E00023FA698D
:1057800002F00302920093407A699A4232D13A4B76
:105790001A68BB69DB43384913400B60364B5A68C3
:1057A000BB69DB43344913404B60334BDA68BB6958
:1057B000DB4331491340CB602F4B9A68BB69DB4315
:1057C0002D4913408B60FB6903F003039B000F22FC
:1057D00002FA03F37B61234AFB699B08023352F808
:1057E00023107B69DA431F48FB699B080A40023398
:1057F00040F82320BB69FF2B01D87B6801E07B6860
:1058000004333B61BB69FF2B02D8FB699B0002E0BC
:10581000FB69083B9B00FB603B691A680F21FB6832
:1058200001FA03F3DB431A400421FB6801FA03F396
:105830001A433B691A607B68DA68BB69DB431A402C
:105840007B68DA60FB690133FB613A68FB6922FA25
:1058500003F3002B7FF45EAF00BF00BF2437BD46CB
:1058600080BC70470000014000080140000C01406E
:1058700000100140001401400004014080B485B0D4
:1058800000AF78600B467B807B689A687B8813400A
:10589000002B02D00123FB7301E00023FB73FB7B91
:1058A00018461437BD4680BC704780B483B000AF43
:1058B00078600B467B8013467B707B78002B03D08F
:1058C0007A887B681A6103E07B881A047B681A6116
:1058D00000BF0C37BD4680BC7047000080B584B067
:1058E00000AF78607B68002B01D101232BE17B683E
:1058F00093F83D30DBB2002B06D17B68002283F8A1
:105900003C207868FEF71CFC7B68242283F83D204D
:105910007B681B681A687B681B6822F001021A60AA
:105920007B681B681A687B681B6842F400421A6037
:105930007B681B681A687B681B6822F400421A6047
:1059400001F056FDF8607B685B68814A934207D896
:10595000FB68804A934294BF01230023DBB206E038
:10596000FB687D4A934294BF01230023DBB2002BE6
:1059700001D00123E7E0FB68784AA2FB03239B0CDC
:10598000BB607B681B685B6823F03F017B681B681A
:10599000BA680A435A607B681B681B6A23F03F01A0
:1059A0007B685B686A4A934202D8BB68013309E0AE
:1059B000BB684FF4967202FB03F3694AA2FB032310
:1059C0009B0901337A6812680B4313627B681B687A
:1059D000DB6923F44F4222F0FF027B685B685C497D
:1059E0008B4219D8FB68591E7B685B685B00B1FB72
:1059F000F3F3591C40F6FC730B40002B0AD0FB68F4
:105A0000591E7B685B685B00B1FBF3F30133C3F3A2
:105A10000B0351E004234FE07B689B68002B11D1FE
:105A2000FB68581E7B6859680B465B000B44B0FB53
:105A3000F3F30133C3F30B03002B0CBF012300234B
:105A4000DBB212E0FB68581E7B6859680B469B006E
:105A50000B4499000B44B0FBF3F30133C3F30B0386
:105A6000002B0CBF01230023DBB2002B01D001234C
:105A700022E07B689B68002B0ED1FB68581E7B6878
:105A800059680B465B000B44B0FBF3F30133C3F3DF
:105A90000B0343F400430FE0FB68581E7B68596812
:105AA0000B469B000B4499000B44B0FBF3F301330E
:105AB000C3F30B0343F44043796809681343CB6194
:105AC0007B681B681B6823F0C0017B68DA697B6810
:105AD0001B6A1A437B681B680A431A607B681B6851
